{
  "_format": "hh-sol-artifact-1",
  "contractName": "BMToken",
  "sourceName": "contracts/BMToken.sol",
  "abi": [
    {
      "inputs": [
        {
          "internalType": "string",
          "name": "name",
          "type": "string"
        },
        {
          "internalType": "string",
          "name": "symbol",
          "type": "string"
        },
        {
          "internalType": "uint256",
          "name": "initialBalance",
          "type": "uint256"
        }
      ],
      "stateMutability": "nonpayable",
      "type": "constructor"
    },
    {
      "anonymous": false,
      "inputs": [
        {
          "indexed": true,
          "internalType": "address",
          "name": "owner",
          "type": "address"
        },
        {
          "indexed": true,
          "internalType": "address",
          "name": "spender",
          "type": "address"
        },
        {
          "indexed": false,
          "internalType": "uint256",
          "name": "value",
          "type": "uint256"
        }
      ],
      "name": "Approval",
      "type": "event"
    },
    {
      "anonymous": false,
      "inputs": [],
      "name": "MintFinished",
      "type": "event"
    },
    {
      "anonymous": false,
      "inputs": [
        {
          "indexed": true,
          "internalType": "address",
          "name": "previousOwner",
          "type": "address"
        },
        {
          "indexed": true,
          "internalType": "address",
          "name": "newOwner",
          "type": "address"
        }
      ],
      "name": "OwnershipTransferred",
      "type": "event"
    },
    {
      "anonymous": false,
      "inputs": [
        {
          "indexed": true,
          "internalType": "address",
          "name": "from",
          "type": "address"
        },
        {
          "indexed": true,
          "internalType": "address",
          "name": "to",
          "type": "address"
        },
        {
          "indexed": false,
          "internalType": "uint256",
          "name": "value",
          "type": "uint256"
        }
      ],
      "name": "Transfer",
      "type": "event"
    },
    {
      "inputs": [
        {
          "internalType": "address",
          "name": "owner",
          "type": "address"
        },
        {
          "internalType": "address",
          "name": "spender",
          "type": "address"
        }
      ],
      "name": "allowance",
      "outputs": [
        {
          "internalType": "uint256",
          "name": "",
          "type": "uint256"
        }
      ],
      "stateMutability": "view",
      "type": "function"
    },
    {
      "inputs": [
        {
          "internalType": "address",
          "name": "spender",
          "type": "address"
        },
        {
          "internalType": "uint256",
          "name": "amount",
          "type": "uint256"
        }
      ],
      "name": "approve",
      "outputs": [
        {
          "internalType": "bool",
          "name": "",
          "type": "bool"
        }
      ],
      "stateMutability": "nonpayable",
      "type": "function"
    },
    {
      "inputs": [
        {
          "internalType": "address",
          "name": "account",
          "type": "address"
        }
      ],
      "name": "balanceOf",
      "outputs": [
        {
          "internalType": "uint256",
          "name": "",
          "type": "uint256"
        }
      ],
      "stateMutability": "view",
      "type": "function"
    },
    {
      "inputs": [
        {
          "internalType": "uint256",
          "name": "amount",
          "type": "uint256"
        }
      ],
      "name": "burn",
      "outputs": [],
      "stateMutability": "nonpayable",
      "type": "function"
    },
    {
      "inputs": [
        {
          "internalType": "address",
          "name": "account",
          "type": "address"
        },
        {
          "internalType": "uint256",
          "name": "amount",
          "type": "uint256"
        }
      ],
      "name": "burnFrom",
      "outputs": [],
      "stateMutability": "nonpayable",
      "type": "function"
    },
    {
      "inputs": [],
      "name": "decimals",
      "outputs": [
        {
          "internalType": "uint8",
          "name": "",
          "type": "uint8"
        }
      ],
      "stateMutability": "view",
      "type": "function"
    },
    {
      "inputs": [
        {
          "internalType": "address",
          "name": "spender",
          "type": "address"
        },
        {
          "internalType": "uint256",
          "name": "subtractedValue",
          "type": "uint256"
        }
      ],
      "name": "decreaseAllowance",
      "outputs": [
        {
          "internalType": "bool",
          "name": "",
          "type": "bool"
        }
      ],
      "stateMutability": "nonpayable",
      "type": "function"
    },
    {
      "inputs": [],
      "name": "finishMinting",
      "outputs": [],
      "stateMutability": "nonpayable",
      "type": "function"
    },
    {
      "inputs": [
        {
          "internalType": "address",
          "name": "spender",
          "type": "address"
        },
        {
          "internalType": "uint256",
          "name": "addedValue",
          "type": "uint256"
        }
      ],
      "name": "increaseAllowance",
      "outputs": [
        {
          "internalType": "bool",
          "name": "",
          "type": "bool"
        }
      ],
      "stateMutability": "nonpayable",
      "type": "function"
    },
    {
      "inputs": [
        {
          "internalType": "address",
          "name": "account",
          "type": "address"
        },
        {
          "internalType": "uint256",
          "name": "amount",
          "type": "uint256"
        }
      ],
      "name": "mint",
      "outputs": [],
      "stateMutability": "nonpayable",
      "type": "function"
    },
    {
      "inputs": [],
      "name": "mintingFinished",
      "outputs": [
        {
          "internalType": "bool",
          "name": "",
          "type": "bool"
        }
      ],
      "stateMutability": "view",
      "type": "function"
    },
    {
      "inputs": [],
      "name": "name",
      "outputs": [
        {
          "internalType": "string",
          "name": "",
          "type": "string"
        }
      ],
      "stateMutability": "view",
      "type": "function"
    },
    {
      "inputs": [],
      "name": "owner",
      "outputs": [
        {
          "internalType": "address",
          "name": "",
          "type": "address"
        }
      ],
      "stateMutability": "view",
      "type": "function"
    },
    {
      "inputs": [],
      "name": "renounceOwnership",
      "outputs": [],
      "stateMutability": "nonpayable",
      "type": "function"
    },
    {
      "inputs": [],
      "name": "symbol",
      "outputs": [
        {
          "internalType": "string",
          "name": "",
          "type": "string"
        }
      ],
      "stateMutability": "view",
      "type": "function"
    },
    {
      "inputs": [],
      "name": "totalSupply",
      "outputs": [
        {
          "internalType": "uint256",
          "name": "",
          "type": "uint256"
        }
      ],
      "stateMutability": "view",
      "type": "function"
    },
    {
      "inputs": [
        {
          "internalType": "address",
          "name": "recipient",
          "type": "address"
        },
        {
          "internalType": "uint256",
          "name": "amount",
          "type": "uint256"
        }
      ],
      "name": "transfer",
      "outputs": [
        {
          "internalType": "bool",
          "name": "",
          "type": "bool"
        }
      ],
      "stateMutability": "nonpayable",
      "type": "function"
    },
    {
      "inputs": [
        {
          "internalType": "address",
          "name": "sender",
          "type": "address"
        },
        {
          "internalType": "address",
          "name": "recipient",
          "type": "address"
        },
        {
          "internalType": "uint256",
          "name": "amount",
          "type": "uint256"
        }
      ],
      "name": "transferFrom",
      "outputs": [
        {
          "internalType": "bool",
          "name": "",
          "type": "bool"
        }
      ],
      "stateMutability": "nonpayable",
      "type": "function"
    },
    {
      "inputs": [
        {
          "internalType": "address",
          "name": "newOwner",
          "type": "address"
        }
      ],
      "name": "transferOwnership",
      "outputs": [],
      "stateMutability": "nonpayable",
      "type": "function"
    }
  ],
  "bytecode": "0x60806040526000600560006101000a81548160ff0219169083151502179055503480156200002c57600080fd5b5060405162002b0838038062002b0883398181016040528101906200005291906200057c565b828281600390805190602001906200006c92919062000443565b5080600490805190602001906200008592919062000443565b505050620000a86200009c6200011e60201b60201c565b6200012660201b60201c565b60008111620000ee576040517f08c379a0000000000000000000000000000000000000000000000000000000008152600401620000e590620006ac565b60405180910390fd5b6200011533670de0b6b3a764000083620001099190620007da565b620001ec60201b60201c565b50505062000a1a565b600033905090565b6000600560019054906101000a900473ffffffffffffffffffffffffffffffffffffffff16905081600560016101000a81548173ffffffffffffffffffffffffffffffffffffffff021916908373ffffffffffffffffffffffffffffffffffffffff1602179055508173ffffffffffffffffffffffffffffffffffffffff168173ffffffffffffffffffffffffffffffffffffffff167f8be0079c531659141344cd1fd0a4f28419497f9722a3daafe3b4186f6b6457e060405160405180910390a35050565b620001fc6200011e60201b60201c565b73ffffffffffffffffffffffffffffffffffffffff16620002226200029660201b60201c565b73ffffffffffffffffffffffffffffffffffffffff16146200027b576040517f08c379a000000000000000000000000000000000000000000000000000000000815260040162000272906200068a565b60405180910390fd5b620002928282620002c060201b62000b871760201c565b5050565b6000600560019054906101000a900473ffffffffffffffffffffffffffffffffffffffff16905090565b600073ffffffffffffffffffffffffffffffffffffffff168273ffffffffffffffffffffffffffffffffffffffff16141562000333576040517f08c379a00000000000000000000000000000000000000000000000000000000081526004016200032a90620006ce565b60405180910390fd5b62000347600083836200043960201b60201c565b80600260008282546200035b91906200077d565b92505081905550806000808473ffffffffffffffffffffffffffffffffffffffff1673ffffffffffffffffffffffffffffffffffffffff1681526020019081526020016000206000828254620003b291906200077d565b925050819055508173ffffffffffffffffffffffffffffffffffffffff16600073ffffffffffffffffffffffffffffffffffffffff167fddf252ad1be2c89b69c2b068fc378daa952ba7f163c4a11628f55a4df523b3ef83604051620004199190620006f0565b60405180910390a362000435600083836200043e60201b60201c565b5050565b505050565b505050565b82805462000451906200087b565b90600052602060002090601f016020900481019282620004755760008555620004c1565b82601f106200049057805160ff1916838001178555620004c1565b82800160010185558215620004c1579182015b82811115620004c0578251825591602001919060010190620004a3565b5b509050620004d09190620004d4565b5090565b5b80821115620004ef576000816000905550600101620004d5565b5090565b60006200050a620005048462000736565b6200070d565b9050828152602081018484840111156200052357600080fd5b6200053084828562000845565b509392505050565b600082601f8301126200054a57600080fd5b81516200055c848260208601620004f3565b91505092915050565b600081519050620005768162000a00565b92915050565b6000806000606084860312156200059257600080fd5b600084015167ffffffffffffffff811115620005ad57600080fd5b620005bb8682870162000538565b935050602084015167ffffffffffffffff811115620005d957600080fd5b620005e78682870162000538565b9250506040620005fa8682870162000565565b9150509250925092565b6000620006136020836200076c565b9150620006208262000985565b602082019050919050565b60006200063a601e836200076c565b91506200064782620009ae565b602082019050919050565b600062000661601f836200076c565b91506200066e82620009d7565b602082019050919050565b62000684816200083b565b82525050565b60006020820190508181036000830152620006a58162000604565b9050919050565b60006020820190508181036000830152620006c7816200062b565b9050919050565b60006020820190508181036000830152620006e98162000652565b9050919050565b600060208201905062000707600083018462000679565b92915050565b6000620007196200072c565b9050620007278282620008b1565b919050565b6000604051905090565b600067ffffffffffffffff82111562000754576200075362000945565b5b6200075f8262000974565b9050602081019050919050565b600082825260208201905092915050565b60006200078a826200083b565b915062000797836200083b565b9250827fffffffffffffffffffffffffffffffffffffffffffffffffffffffffffffffff03821115620007cf57620007ce620008e7565b5b828201905092915050565b6000620007e7826200083b565b9150620007f4836200083b565b9250817fffffffffffffffffffffffffffffffffffffffffffffffffffffffffffffffff048311821515161562000830576200082f620008e7565b5b828202905092915050565b6000819050919050565b60005b838110156200086557808201518184015260208101905062000848565b8381111562000875576000848401525b50505050565b600060028204905060018216806200089457607f821691505b60208210811415620008ab57620008aa62000916565b5b50919050565b620008bc8262000974565b810181811067ffffffffffffffff82111715620008de57620008dd62000945565b5b80604052505050565b7f4e487b7100000000000000000000000000000000000000000000000000000000600052601160045260246000fd5b7f4e487b7100000000000000000000000000000000000000000000000000000000600052602260045260246000fd5b7f4e487b7100000000000000000000000000000000000000000000000000000000600052604160045260246000fd5b6000601f19601f8301169050919050565b7f4f776e61626c653a2063616c6c6572206973206e6f7420746865206f776e6572600082015250565b7f424d546f6b656e3a20537570706c792063616e6e6f74206265207a65726f0000600082015250565b7f45524332303a206d696e7420746f20746865207a65726f206164647265737300600082015250565b62000a0b816200083b565b811462000a1757600080fd5b50565b6120de8062000a2a6000396000f3fe608060405234801561001057600080fd5b50600436106101215760003560e01c806370a08231116100ad57806395d89b411161007157806395d89b41146102e4578063a457c2d714610302578063a9059cbb14610332578063dd62ed3e14610362578063f2fde38b1461039257610121565b806370a0823114610266578063715018a61461029657806379cc6790146102a05780637d64bcb4146102bc5780638da5cb5b146102c657610121565b806323b872dd116100f457806323b872dd146101b0578063313ce567146101e057806339509351146101fe57806340c10f191461022e57806342966c681461024a57610121565b806305d2035b1461012657806306fdde0314610144578063095ea7b31461016257806318160ddd14610192575b600080fd5b61012e6103ae565b60405161013b9190611872565b60405180910390f35b61014c6103c5565b604051610159919061188d565b60405180910390f35b61017c60048036038101906101779190611593565b610457565b6040516101899190611872565b60405180910390f35b61019a610475565b6040516101a79190611a6f565b60405180910390f35b6101ca60048036038101906101c59190611544565b61047f565b6040516101d79190611872565b60405180910390f35b6101e8610577565b6040516101f59190611a8a565b60405180910390f35b61021860048036038101906102139190611593565b610580565b6040516102259190611872565b60405180910390f35b61024860048036038101906102439190611593565b61062c565b005b610264600480360381019061025f91906115cf565b61068a565b005b610280600480360381019061027b91906114df565b61069e565b60405161028d9190611a6f565b60405180910390f35b61029e6106e6565b005b6102ba60048036038101906102b59190611593565b61076e565b005b6102c46107e9565b005b6102ce610843565b6040516102db9190611857565b60405180910390f35b6102ec61086d565b6040516102f9919061188d565b60405180910390f35b61031c60048036038101906103179190611593565b6108ff565b6040516103299190611872565b60405180910390f35b61034c60048036038101906103479190611593565b6109ea565b6040516103599190611872565b60405180910390f35b61037c60048036038101906103779190611508565b610a08565b6040516103899190611a6f565b60405180910390f35b6103ac60048036038101906103a791906114df565b610a8f565b005b6000600560009054906101000a900460ff16905090565b6060600380546103d490611bd3565b80601f016020809104026020016040519081016040528092919081815260200182805461040090611bd3565b801561044d5780601f106104225761010080835404028352916020019161044d565b820191906000526020600020905b81548152906001019060200180831161043057829003601f168201915b5050505050905090565b600061046b610464610ce7565b8484610cef565b6001905092915050565b6000600254905090565b600061048c848484610eba565b6000600160008673ffffffffffffffffffffffffffffffffffffffff1673ffffffffffffffffffffffffffffffffffffffff16815260200190815260200160002060006104d7610ce7565b73ffffffffffffffffffffffffffffffffffffffff1673ffffffffffffffffffffffffffffffffffffffff16815260200190815260200160002054905082811015610557576040517f08c379a000000000000000000000000000000000000000000000000000000000815260040161054e9061194f565b60405180910390fd5b61056b85610563610ce7565b858403610cef565b60019150509392505050565b60006012905090565b600061062261058d610ce7565b84846001600061059b610ce7565b73ffffffffffffffffffffffffffffffffffffffff1673ffffffffffffffffffffffffffffffffffffffff16815260200190815260200160002060008873ffffffffffffffffffffffffffffffffffffffff1673ffffffffffffffffffffffffffffffffffffffff1681526020019081526020016000205461061d9190611ac1565b610cef565b6001905092915050565b600560009054906101000a900460ff161561067c576040517f08c379a000000000000000000000000000000000000000000000000000000000815260040161067390611a0f565b60405180910390fd5b610686828261113b565b5050565b61069b610695610ce7565b826111c5565b50565b60008060008373ffffffffffffffffffffffffffffffffffffffff1673ffffffffffffffffffffffffffffffffffffffff168152602001908152602001600020549050919050565b6106ee610ce7565b73ffffffffffffffffffffffffffffffffffffffff1661070c610843565b73ffffffffffffffffffffffffffffffffffffffff1614610762576040517f08c379a00000000000000000000000000000000000000000000000000000000081526004016107599061196f565b60405180910390fd5b61076c600061139c565b565b60006107818361077c610ce7565b610a08565b9050818110156107c6576040517f08c379a00000000000000000000000000000000000000000000000000000000081526004016107bd9061198f565b60405180910390fd5b6107da836107d2610ce7565b848403610cef565b6107e483836111c5565b505050565b600560009054906101000a900460ff1615610839576040517f08c379a000000000000000000000000000000000000000000000000000000000815260040161083090611a0f565b60405180910390fd5b610841611462565b565b6000600560019054906101000a900473ffffffffffffffffffffffffffffffffffffffff16905090565b60606004805461087c90611bd3565b80601f01602080910402602001604051908101604052809291908181526020018280546108a890611bd3565b80156108f55780601f106108ca576101008083540402835291602001916108f5565b820191906000526020600020905b8154815290600101906020018083116108d857829003601f168201915b5050505050905090565b6000806001600061090e610ce7565b73ffffffffffffffffffffffffffffffffffffffff1673ffffffffffffffffffffffffffffffffffffffff16815260200190815260200160002060008573ffffffffffffffffffffffffffffffffffffffff1673ffffffffffffffffffffffffffffffffffffffff168152602001908152602001600020549050828110156109cb576040517f08c379a00000000000000000000000000000000000000000000000000000000081526004016109c290611a2f565b60405180910390fd5b6109df6109d6610ce7565b85858403610cef565b600191505092915050565b60006109fe6109f7610ce7565b8484610eba565b6001905092915050565b6000600160008473ffffffffffffffffffffffffffffffffffffffff1673ffffffffffffffffffffffffffffffffffffffff16815260200190815260200160002060008373ffffffffffffffffffffffffffffffffffffffff1673ffffffffffffffffffffffffffffffffffffffff16815260200190815260200160002054905092915050565b610a97610ce7565b73ffffffffffffffffffffffffffffffffffffffff16610ab5610843565b73ffffffffffffffffffffffffffffffffffffffff1614610b0b576040517f08c379a0000000000000000000000000000000000000000000000000000000008152600401610b029061196f565b60405180910390fd5b600073ffffffffffffffffffffffffffffffffffffffff168173ffffffffffffffffffffffffffffffffffffffff161415610b7b576040517f08c379a0000000000000000000000000000000000000000000000000000000008152600401610b72906118ef565b60405180910390fd5b610b848161139c565b50565b600073ffffffffffffffffffffffffffffffffffffffff168273ffffffffffffffffffffffffffffffffffffffff161415610bf7576040517f08c379a0000000000000000000000000000000000000000000000000000000008152600401610bee90611a4f565b60405180910390fd5b610c03600083836114ab565b8060026000828254610c159190611ac1565b92505081905550806000808473ffffffffffffffffffffffffffffffffffffffff1673ffffffffffffffffffffffffffffffffffffffff1681526020019081526020016000206000828254610c6a9190611ac1565b925050819055508173ffffffffffffffffffffffffffffffffffffffff16600073ffffffffffffffffffffffffffffffffffffffff167fddf252ad1be2c89b69c2b068fc378daa952ba7f163c4a11628f55a4df523b3ef83604051610ccf9190611a6f565b60405180910390a3610ce3600083836114b0565b5050565b600033905090565b600073ffffffffffffffffffffffffffffffffffffffff168373ffffffffffffffffffffffffffffffffffffffff161415610d5f576040517f08c379a0000000000000000000000000000000000000000000000000000000008152600401610d56906119ef565b60405180910390fd5b600073ffffffffffffffffffffffffffffffffffffffff168273ffffffffffffffffffffffffffffffffffffffff161415610dcf576040517f08c379a0000000000000000000000000000000000000000000000000000000008152600401610dc69061190f565b60405180910390fd5b80600160008573ffffffffffffffffffffffffffffffffffffffff1673ffffffffffffffffffffffffffffffffffffffff16815260200190815260200160002060008473ffffffffffffffffffffffffffffffffffffffff1673ffffffffffffffffffffffffffffffffffffffff168152602001908152602001600020819055508173ffffffffffffffffffffffffffffffffffffffff168373ffffffffffffffffffffffffffffffffffffffff167f8c5be1e5ebec7d5bd14f71427d1e84f3dd0314c0f7b2291e5b200ac8c7c3b92583604051610ead9190611a6f565b60405180910390a3505050565b600073ffffffffffffffffffffffffffffffffffffffff168373ffffffffffffffffffffffffffffffffffffffff161415610f2a576040517f08c379a0000000000000000000000000000000000000000000000000000000008152600401610f21906119cf565b60405180910390fd5b600073ffffffffffffffffffffffffffffffffffffffff168273ffffffffffffffffffffffffffffffffffffffff161415610f9a576040517f08c379a0000000000000000000000000000000000000000000000000000000008152600401610f91906118af565b60405180910390fd5b610fa58383836114ab565b60008060008573ffffffffffffffffffffffffffffffffffffffff1673ffffffffffffffffffffffffffffffffffffffff1681526020019081526020016000205490508181101561102b576040517f08c379a00000000000000000000000000000000000000000000000000000000081526004016110229061192f565b60405180910390fd5b8181036000808673ffffffffffffffffffffffffffffffffffffffff1673ffffffffffffffffffffffffffffffffffffffff16815260200190815260200160002081905550816000808573ffffffffffffffffffffffffffffffffffffffff1673ffffffffffffffffffffffffffffffffffffffff16815260200190815260200160002060008282546110be9190611ac1565b925050819055508273ffffffffffffffffffffffffffffffffffffffff168473ffffffffffffffffffffffffffffffffffffffff167fddf252ad1be2c89b69c2b068fc378daa952ba7f163c4a11628f55a4df523b3ef846040516111229190611a6f565b60405180910390a36111358484846114b0565b50505050565b611143610ce7565b73ffffffffffffffffffffffffffffffffffffffff16611161610843565b73ffffffffffffffffffffffffffffffffffffffff16146111b7576040517f08c379a00000000000000000000000000000000000000000000000000000000081526004016111ae9061196f565b60405180910390fd5b6111c18282610b87565b5050565b600073ffffffffffffffffffffffffffffffffffffffff168273ffffffffffffffffffffffffffffffffffffffff161415611235576040517f08c379a000000000000000000000000000000000000000000000000000000000815260040161122c906119af565b60405180910390fd5b611241826000836114ab565b60008060008473ffffffffffffffffffffffffffffffffffffffff1673ffffffffffffffffffffffffffffffffffffffff168152602001908152602001600020549050818110156112c7576040517f08c379a00000000000000000000000000000000000000000000000000000000081526004016112be906118cf565b60405180910390fd5b8181036000808573ffffffffffffffffffffffffffffffffffffffff1673ffffffffffffffffffffffffffffffffffffffff16815260200190815260200160002081905550816002600082825461131e9190611b17565b92505081905550600073ffffffffffffffffffffffffffffffffffffffff168373ffffffffffffffffffffffffffffffffffffffff167fddf252ad1be2c89b69c2b068fc378daa952ba7f163c4a11628f55a4df523b3ef846040516113839190611a6f565b60405180910390a3611397836000846114b0565b505050565b6000600560019054906101000a900473ffffffffffffffffffffffffffffffffffffffff16905081600560016101000a81548173ffffffffffffffffffffffffffffffffffffffff021916908373ffffffffffffffffffffffffffffffffffffffff1602179055508173ffffffffffffffffffffffffffffffffffffffff168173ffffffffffffffffffffffffffffffffffffffff167f8be0079c531659141344cd1fd0a4f28419497f9722a3daafe3b4186f6b6457e060405160405180910390a35050565b6001600560006101000a81548160ff0219169083151502179055507fae5184fba832cb2b1f702aca6117b8d265eaf03ad33eb133f19dde0f5920fa0860405160405180910390a1565b505050565b505050565b6000813590506114c48161207a565b92915050565b6000813590506114d981612091565b92915050565b6000602082840312156114f157600080fd5b60006114ff848285016114b5565b91505092915050565b6000806040838503121561151b57600080fd5b6000611529858286016114b5565b925050602061153a858286016114b5565b9150509250929050565b60008060006060848603121561155957600080fd5b6000611567868287016114b5565b9350506020611578868287016114b5565b9250506040611589868287016114ca565b9150509250925092565b600080604083850312156115a657600080fd5b60006115b4858286016114b5565b92505060206115c5858286016114ca565b9150509250929050565b6000602082840312156115e157600080fd5b60006115ef848285016114ca565b91505092915050565b61160181611b4b565b82525050565b61161081611b5d565b82525050565b600061162182611aa5565b61162b8185611ab0565b935061163b818560208601611ba0565b61164481611c63565b840191505092915050565b600061165c602383611ab0565b915061166782611c74565b604082019050919050565b600061167f602283611ab0565b915061168a82611cc3565b604082019050919050565b60006116a2602683611ab0565b91506116ad82611d12565b604082019050919050565b60006116c5602283611ab0565b91506116d082611d61565b604082019050919050565b60006116e8602683611ab0565b91506116f382611db0565b604082019050919050565b600061170b602883611ab0565b915061171682611dff565b604082019050919050565b600061172e602083611ab0565b915061173982611e4e565b602082019050919050565b6000611751602483611ab0565b915061175c82611e77565b604082019050919050565b6000611774602183611ab0565b915061177f82611ec6565b604082019050919050565b6000611797602583611ab0565b91506117a282611f15565b604082019050919050565b60006117ba602483611ab0565b91506117c582611f64565b604082019050919050565b60006117dd602283611ab0565b91506117e882611fb3565b604082019050919050565b6000611800602583611ab0565b915061180b82612002565b604082019050919050565b6000611823601f83611ab0565b915061182e82612051565b602082019050919050565b61184281611b89565b82525050565b61185181611b93565b82525050565b600060208201905061186c60008301846115f8565b92915050565b60006020820190506118876000830184611607565b92915050565b600060208201905081810360008301526118a78184611616565b905092915050565b600060208201905081810360008301526118c88161164f565b9050919050565b600060208201905081810360008301526118e881611672565b9050919050565b6000602082019050818103600083015261190881611695565b9050919050565b60006020820190508181036000830152611928816116b8565b9050919050565b60006020820190508181036000830152611948816116db565b9050919050565b60006020820190508181036000830152611968816116fe565b9050919050565b6000602082019050818103600083015261198881611721565b9050919050565b600060208201905081810360008301526119a881611744565b9050919050565b600060208201905081810360008301526119c881611767565b9050919050565b600060208201905081810360008301526119e88161178a565b9050919050565b60006020820190508181036000830152611a08816117ad565b9050919050565b60006020820190508181036000830152611a28816117d0565b9050919050565b60006020820190508181036000830152611a48816117f3565b9050919050565b60006020820190508181036000830152611a6881611816565b9050919050565b6000602082019050611a846000830184611839565b92915050565b6000602082019050611a9f6000830184611848565b92915050565b600081519050919050565b600082825260208201905092915050565b6000611acc82611b89565b9150611ad783611b89565b9250827fffffffffffffffffffffffffffffffffffffffffffffffffffffffffffffffff03821115611b0c57611b0b611c05565b5b828201905092915050565b6000611b2282611b89565b9150611b2d83611b89565b925082821015611b4057611b3f611c05565b5b828203905092915050565b6000611b5682611b69565b9050919050565b60008115159050919050565b600073ffffffffffffffffffffffffffffffffffffffff82169050919050565b6000819050919050565b600060ff82169050919050565b60005b83811015611bbe578082015181840152602081019050611ba3565b83811115611bcd576000848401525b50505050565b60006002820490506001821680611beb57607f821691505b60208210811415611bff57611bfe611c34565b5b50919050565b7f4e487b7100000000000000000000000000000000000000000000000000000000600052601160045260246000fd5b7f4e487b7100000000000000000000000000000000000000000000000000000000600052602260045260246000fd5b6000601f19601f8301169050919050565b7f45524332303a207472616e7366657220746f20746865207a65726f206164647260008201527f6573730000000000000000000000000000000000000000000000000000000000602082015250565b7f45524332303a206275726e20616d6f756e7420657863656564732062616c616e60008201527f6365000000000000000000000000000000000000000000000000000000000000602082015250565b7f4f776e61626c653a206e6577206f776e657220697320746865207a65726f206160008201527f6464726573730000000000000000000000000000000000000000000000000000602082015250565b7f45524332303a20617070726f766520746f20746865207a65726f20616464726560008201527f7373000000000000000000000000000000000000000000000000000000000000602082015250565b7f45524332303a207472616e7366657220616d6f756e742065786365656473206260008201527f616c616e63650000000000000000000000000000000000000000000000000000602082015250565b7f45524332303a207472616e7366657220616d6f756e742065786365656473206160008201527f6c6c6f77616e6365000000000000000000000000000000000000000000000000602082015250565b7f4f776e61626c653a2063616c6c6572206973206e6f7420746865206f776e6572600082015250565b7f45524332303a206275726e20616d6f756e74206578636565647320616c6c6f7760008201527f616e636500000000000000000000000000000000000000000000000000000000602082015250565b7f45524332303a206275726e2066726f6d20746865207a65726f2061646472657360008201527f7300000000000000000000000000000000000000000000000000000000000000602082015250565b7f45524332303a207472616e736665722066726f6d20746865207a65726f20616460008201527f6472657373000000000000000000000000000000000000000000000000000000602082015250565b7f45524332303a20617070726f76652066726f6d20746865207a65726f2061646460008201527f7265737300000000000000000000000000000000000000000000000000000000602082015250565b7f45524332304d696e7461626c653a206d696e74696e672069732066696e69736860008201527f6564000000000000000000000000000000000000000000000000000000000000602082015250565b7f45524332303a2064656372656173656420616c6c6f77616e63652062656c6f7760008201527f207a65726f000000000000000000000000000000000000000000000000000000602082015250565b7f45524332303a206d696e7420746f20746865207a65726f206164647265737300600082015250565b61208381611b4b565b811461208e57600080fd5b50565b61209a81611b89565b81146120a557600080fd5b5056fea26469706673582212200f6542a094177f35a065062fe49ff6ea8b6ec5c0abb75727d34a777da22dd80e64736f6c63430008040033",
  "linkReferences": {},
  "deployedLinkReferences": {}
}