{
  "_format": "hh-sol-artifact-1",
  "contractName": "BMToken",
  "sourceName": "contracts/BMToken.sol",
  "abi": [
    {
      "inputs": [
        {
          "internalType": "string",
          "name": "name",
          "type": "string"
        },
        {
          "internalType": "string",
          "name": "symbol",
          "type": "string"
        },
        {
          "internalType": "uint256",
          "name": "initialBalance",
          "type": "uint256"
        }
      ],
      "stateMutability": "nonpayable",
      "type": "constructor"
    },
    {
      "anonymous": false,
      "inputs": [
        {
          "indexed": true,
          "internalType": "address",
          "name": "owner",
          "type": "address"
        },
        {
          "indexed": true,
          "internalType": "address",
          "name": "spender",
          "type": "address"
        },
        {
          "indexed": false,
          "internalType": "uint256",
          "name": "value",
          "type": "uint256"
        }
      ],
      "name": "Approval",
      "type": "event"
    },
    {
      "anonymous": false,
      "inputs": [],
      "name": "MintFinished",
      "type": "event"
    },
    {
      "anonymous": false,
      "inputs": [
        {
          "indexed": true,
          "internalType": "address",
          "name": "previousOwner",
          "type": "address"
        },
        {
          "indexed": true,
          "internalType": "address",
          "name": "newOwner",
          "type": "address"
        }
      ],
      "name": "OwnershipTransferred",
      "type": "event"
    },
    {
      "anonymous": false,
      "inputs": [
        {
          "indexed": true,
          "internalType": "address",
          "name": "from",
          "type": "address"
        },
        {
          "indexed": true,
          "internalType": "address",
          "name": "to",
          "type": "address"
        },
        {
          "indexed": false,
          "internalType": "uint256",
          "name": "value",
          "type": "uint256"
        }
      ],
      "name": "Transfer",
      "type": "event"
    },
    {
      "inputs": [
        {
          "internalType": "address",
          "name": "owner",
          "type": "address"
        },
        {
          "internalType": "address",
          "name": "spender",
          "type": "address"
        }
      ],
      "name": "allowance",
      "outputs": [
        {
          "internalType": "uint256",
          "name": "",
          "type": "uint256"
        }
      ],
      "stateMutability": "view",
      "type": "function"
    },
    {
      "inputs": [
        {
          "internalType": "address",
          "name": "spender",
          "type": "address"
        },
        {
          "internalType": "uint256",
          "name": "amount",
          "type": "uint256"
        }
      ],
      "name": "approve",
      "outputs": [
        {
          "internalType": "bool",
          "name": "",
          "type": "bool"
        }
      ],
      "stateMutability": "nonpayable",
      "type": "function"
    },
    {
      "inputs": [
        {
          "internalType": "address",
          "name": "account",
          "type": "address"
        }
      ],
      "name": "balanceOf",
      "outputs": [
        {
          "internalType": "uint256",
          "name": "",
          "type": "uint256"
        }
      ],
      "stateMutability": "view",
      "type": "function"
    },
    {
      "inputs": [
        {
          "internalType": "uint256",
          "name": "amount",
          "type": "uint256"
        }
      ],
      "name": "burn",
      "outputs": [],
      "stateMutability": "nonpayable",
      "type": "function"
    },
    {
      "inputs": [
        {
          "internalType": "address",
          "name": "account",
          "type": "address"
        },
        {
          "internalType": "uint256",
          "name": "amount",
          "type": "uint256"
        }
      ],
      "name": "burnFrom",
      "outputs": [],
      "stateMutability": "nonpayable",
      "type": "function"
    },
    {
      "inputs": [],
      "name": "decimals",
      "outputs": [
        {
          "internalType": "uint8",
          "name": "",
          "type": "uint8"
        }
      ],
      "stateMutability": "pure",
      "type": "function"
    },
    {
      "inputs": [
        {
          "internalType": "address",
          "name": "spender",
          "type": "address"
        },
        {
          "internalType": "uint256",
          "name": "subtractedValue",
          "type": "uint256"
        }
      ],
      "name": "decreaseAllowance",
      "outputs": [
        {
          "internalType": "bool",
          "name": "",
          "type": "bool"
        }
      ],
      "stateMutability": "nonpayable",
      "type": "function"
    },
    {
      "inputs": [],
      "name": "finishMinting",
      "outputs": [],
      "stateMutability": "nonpayable",
      "type": "function"
    },
    {
      "inputs": [
        {
          "internalType": "address",
          "name": "spender",
          "type": "address"
        },
        {
          "internalType": "uint256",
          "name": "addedValue",
          "type": "uint256"
        }
      ],
      "name": "increaseAllowance",
      "outputs": [
        {
          "internalType": "bool",
          "name": "",
          "type": "bool"
        }
      ],
      "stateMutability": "nonpayable",
      "type": "function"
    },
    {
      "inputs": [
        {
          "internalType": "address",
          "name": "recipient",
          "type": "address"
        },
        {
          "internalType": "uint256",
          "name": "amount",
          "type": "uint256"
        },
        {
          "internalType": "string",
          "name": "nonce",
          "type": "string"
        }
      ],
      "name": "migrate",
      "outputs": [
        {
          "internalType": "bool",
          "name": "",
          "type": "bool"
        }
      ],
      "stateMutability": "nonpayable",
      "type": "function"
    },
    {
      "inputs": [
        {
          "internalType": "address",
          "name": "account",
          "type": "address"
        },
        {
          "internalType": "uint256",
          "name": "amount",
          "type": "uint256"
        }
      ],
      "name": "mint",
      "outputs": [],
      "stateMutability": "nonpayable",
      "type": "function"
    },
    {
      "inputs": [],
      "name": "mintingFinished",
      "outputs": [
        {
          "internalType": "bool",
          "name": "",
          "type": "bool"
        }
      ],
      "stateMutability": "view",
      "type": "function"
    },
    {
      "inputs": [],
      "name": "name",
      "outputs": [
        {
          "internalType": "string",
          "name": "",
          "type": "string"
        }
      ],
      "stateMutability": "view",
      "type": "function"
    },
    {
      "inputs": [],
      "name": "owner",
      "outputs": [
        {
          "internalType": "address",
          "name": "",
          "type": "address"
        }
      ],
      "stateMutability": "view",
      "type": "function"
    },
    {
      "inputs": [],
      "name": "renounceOwnership",
      "outputs": [],
      "stateMutability": "nonpayable",
      "type": "function"
    },
    {
      "inputs": [],
      "name": "symbol",
      "outputs": [
        {
          "internalType": "string",
          "name": "",
          "type": "string"
        }
      ],
      "stateMutability": "view",
      "type": "function"
    },
    {
      "inputs": [],
      "name": "totalSupply",
      "outputs": [
        {
          "internalType": "uint256",
          "name": "",
          "type": "uint256"
        }
      ],
      "stateMutability": "view",
      "type": "function"
    },
    {
      "inputs": [
        {
          "internalType": "address",
          "name": "recipient",
          "type": "address"
        },
        {
          "internalType": "uint256",
          "name": "amount",
          "type": "uint256"
        }
      ],
      "name": "transfer",
      "outputs": [
        {
          "internalType": "bool",
          "name": "",
          "type": "bool"
        }
      ],
      "stateMutability": "nonpayable",
      "type": "function"
    },
    {
      "inputs": [
        {
          "internalType": "address",
          "name": "sender",
          "type": "address"
        },
        {
          "internalType": "address",
          "name": "recipient",
          "type": "address"
        },
        {
          "internalType": "uint256",
          "name": "amount",
          "type": "uint256"
        }
      ],
      "name": "transferFrom",
      "outputs": [
        {
          "internalType": "bool",
          "name": "",
          "type": "bool"
        }
      ],
      "stateMutability": "nonpayable",
      "type": "function"
    },
    {
      "inputs": [
        {
          "internalType": "address",
          "name": "newOwner",
          "type": "address"
        }
      ],
      "name": "transferOwnership",
      "outputs": [],
      "stateMutability": "nonpayable",
      "type": "function"
    }
  ],
  "bytecode": "0x60806040526000600560006101000a81548160ff0219169083151502179055503480156200002c57600080fd5b5060405162002f6b38038062002f6b83398181016040528101906200005291906200059a565b828281600390805190602001906200006c92919062000461565b5080600490805190602001906200008592919062000461565b505050620000a86200009c6200013360201b60201c565b6200013b60201b60201c565b60008111620000ee576040517f08c379a0000000000000000000000000000000000000000000000000000000008152600401620000e590620006ca565b60405180910390fd5b6200012a33620001036200020160201b60201c565b600a62000111919062000853565b836200011e919062000990565b6200020a60201b60201c565b50505062000bea565b600033905090565b6000600560019054906101000a900473ffffffffffffffffffffffffffffffffffffffff16905081600560016101000a81548173ffffffffffffffffffffffffffffffffffffffff021916908373ffffffffffffffffffffffffffffffffffffffff1602179055508173ffffffffffffffffffffffffffffffffffffffff168173ffffffffffffffffffffffffffffffffffffffff167f8be0079c531659141344cd1fd0a4f28419497f9722a3daafe3b4186f6b6457e060405160405180910390a35050565b60006009905090565b6200021a6200013360201b60201c565b73ffffffffffffffffffffffffffffffffffffffff1662000240620002b460201b60201c565b73ffffffffffffffffffffffffffffffffffffffff161462000299576040517f08c379a00000000000000000000000000000000000000000000000000000000081526004016200029090620006a8565b60405180910390fd5b620002b08282620002de60201b62000c1a1760201c565b5050565b6000600560019054906101000a900473ffffffffffffffffffffffffffffffffffffffff16905090565b600073ffffffffffffffffffffffffffffffffffffffff168273ffffffffffffffffffffffffffffffffffffffff16141562000351576040517f08c379a00000000000000000000000000000000000000000000000000000000081526004016200034890620006ec565b60405180910390fd5b62000365600083836200045760201b60201c565b80600260008282546200037991906200079b565b92505081905550806000808473ffffffffffffffffffffffffffffffffffffffff1673ffffffffffffffffffffffffffffffffffffffff1681526020019081526020016000206000828254620003d091906200079b565b925050819055508173ffffffffffffffffffffffffffffffffffffffff16600073ffffffffffffffffffffffffffffffffffffffff167fddf252ad1be2c89b69c2b068fc378daa952ba7f163c4a11628f55a4df523b3ef836040516200043791906200070e565b60405180910390a362000453600083836200045c60201b60201c565b5050565b505050565b505050565b8280546200046f9062000a3e565b90600052602060002090601f016020900481019282620004935760008555620004df565b82601f10620004ae57805160ff1916838001178555620004df565b82800160010185558215620004df579182015b82811115620004de578251825591602001919060010190620004c1565b5b509050620004ee9190620004f2565b5090565b5b808211156200050d576000816000905550600101620004f3565b5090565b600062000528620005228462000754565b6200072b565b9050828152602081018484840111156200054157600080fd5b6200054e84828562000a08565b509392505050565b600082601f8301126200056857600080fd5b81516200057a84826020860162000511565b91505092915050565b600081519050620005948162000bd0565b92915050565b600080600060608486031215620005b057600080fd5b600084015167ffffffffffffffff811115620005cb57600080fd5b620005d98682870162000556565b935050602084015167ffffffffffffffff811115620005f757600080fd5b620006058682870162000556565b9250506040620006188682870162000583565b9150509250925092565b6000620006316020836200078a565b91506200063e8262000b55565b602082019050919050565b600062000658601e836200078a565b9150620006658262000b7e565b602082019050919050565b60006200067f601f836200078a565b91506200068c8262000ba7565b602082019050919050565b620006a281620009f1565b82525050565b60006020820190508181036000830152620006c38162000622565b9050919050565b60006020820190508181036000830152620006e58162000649565b9050919050565b60006020820190508181036000830152620007078162000670565b9050919050565b600060208201905062000725600083018462000697565b92915050565b6000620007376200074a565b905062000745828262000a74565b919050565b6000604051905090565b600067ffffffffffffffff82111562000772576200077162000b08565b5b6200077d8262000b37565b9050602081019050919050565b600082825260208201905092915050565b6000620007a882620009f1565b9150620007b583620009f1565b9250827fffffffffffffffffffffffffffffffffffffffffffffffffffffffffffffffff03821115620007ed57620007ec62000aaa565b5b828201905092915050565b6000808291508390505b60018511156200084a5780860481111562000822576200082162000aaa565b5b6001851615620008325780820291505b8081029050620008428562000b48565b945062000802565b94509492505050565b60006200086082620009f1565b91506200086d83620009fb565b92506200089c7fffffffffffffffffffffffffffffffffffffffffffffffffffffffffffffffff8484620008a4565b905092915050565b600082620008b6576001905062000989565b81620008c6576000905062000989565b8160018114620008df5760028114620008ea5762000920565b600191505062000989565b60ff841115620008ff57620008fe62000aaa565b5b8360020a91508482111562000919576200091862000aaa565b5b5062000989565b5060208310610133831016604e8410600b84101617156200095a5782820a90508381111562000954576200095362000aaa565b5b62000989565b620009698484846001620007f8565b9250905081840481111562000983576200098262000aaa565b5b81810290505b9392505050565b60006200099d82620009f1565b9150620009aa83620009f1565b9250817fffffffffffffffffffffffffffffffffffffffffffffffffffffffffffffffff0483118215151615620009e657620009e562000aaa565b5b828202905092915050565b6000819050919050565b600060ff82169050919050565b60005b8381101562000a2857808201518184015260208101905062000a0b565b8381111562000a38576000848401525b50505050565b6000600282049050600182168062000a5757607f821691505b6020821081141562000a6e5762000a6d62000ad9565b5b50919050565b62000a7f8262000b37565b810181811067ffffffffffffffff8211171562000aa15762000aa062000b08565b5b80604052505050565b7f4e487b7100000000000000000000000000000000000000000000000000000000600052601160045260246000fd5b7f4e487b7100000000000000000000000000000000000000000000000000000000600052602260045260246000fd5b7f4e487b7100000000000000000000000000000000000000000000000000000000600052604160045260246000fd5b6000601f19601f8301169050919050565b60008160011c9050919050565b7f4f776e61626c653a2063616c6c6572206973206e6f7420746865206f776e6572600082015250565b7f424d546f6b656e3a20537570706c792063616e6e6f74206265207a65726f0000600082015250565b7f45524332303a206d696e7420746f20746865207a65726f206164647265737300600082015250565b62000bdb81620009f1565b811462000be757600080fd5b50565b6123718062000bfa6000396000f3fe608060405234801561001057600080fd5b506004361061012c5760003560e01c8063715018a6116100ad57806395d89b411161007157806395d89b411461031f578063a457c2d71461033d578063a9059cbb1461036d578063dd62ed3e1461039d578063f2fde38b146103cd5761012c565b8063715018a6146102a157806375cee7d6146102ab57806379cc6790146102db5780637d64bcb4146102f75780638da5cb5b146103015761012c565b8063313ce567116100f4578063313ce567146101eb578063395093511461020957806340c10f191461023957806342966c681461025557806370a08231146102715761012c565b806305d2035b1461013157806306fdde031461014f578063095ea7b31461016d57806318160ddd1461019d57806323b872dd146101bb575b600080fd5b6101396103e9565b60405161014691906119f7565b60405180910390f35b610157610400565b6040516101649190611a12565b60405180910390f35b6101876004803603810190610182919061168e565b610492565b60405161019491906119f7565b60405180910390f35b6101a56104b0565b6040516101b29190611c14565b60405180910390f35b6101d560048036038101906101d0919061163f565b6104ba565b6040516101e291906119f7565b60405180910390f35b6101f36105b2565b6040516102009190611c2f565b60405180910390f35b610223600480360381019061021e919061168e565b6105bb565b60405161023091906119f7565b60405180910390f35b610253600480360381019061024e919061168e565b610667565b005b61026f600480360381019061026a9190611731565b6106c5565b005b61028b600480360381019061028691906115da565b6106d9565b6040516102989190611c14565b60405180910390f35b6102a9610721565b005b6102c560048036038101906102c091906116ca565b6107a9565b6040516102d291906119f7565b60405180910390f35b6102f560048036038101906102f0919061168e565b610801565b005b6102ff61087c565b005b6103096108d6565b60405161031691906119dc565b60405180910390f35b610327610900565b6040516103349190611a12565b60405180910390f35b6103576004803603810190610352919061168e565b610992565b60405161036491906119f7565b60405180910390f35b6103876004803603810190610382919061168e565b610a7d565b60405161039491906119f7565b60405180910390f35b6103b760048036038101906103b29190611603565b610a9b565b6040516103c49190611c14565b60405180910390f35b6103e760048036038101906103e291906115da565b610b22565b005b6000600560009054906101000a900460ff16905090565b60606003805461040f90611ddd565b80601f016020809104026020016040519081016040528092919081815260200182805461043b90611ddd565b80156104885780601f1061045d57610100808354040283529160200191610488565b820191906000526020600020905b81548152906001019060200180831161046b57829003601f168201915b5050505050905090565b60006104a661049f610d7a565b8484610d82565b6001905092915050565b6000600254905090565b60006104c7848484610f4d565b6000600160008673ffffffffffffffffffffffffffffffffffffffff1673ffffffffffffffffffffffffffffffffffffffff1681526020019081526020016000206000610512610d7a565b73ffffffffffffffffffffffffffffffffffffffff1673ffffffffffffffffffffffffffffffffffffffff16815260200190815260200160002054905082811015610592576040517f08c379a000000000000000000000000000000000000000000000000000000000815260040161058990611ad4565b60405180910390fd5b6105a68561059e610d7a565b858403610d82565b60019150509392505050565b60006009905090565b600061065d6105c8610d7a565b8484600160006105d6610d7a565b73ffffffffffffffffffffffffffffffffffffffff1673ffffffffffffffffffffffffffffffffffffffff16815260200190815260200160002060008873ffffffffffffffffffffffffffffffffffffffff1673ffffffffffffffffffffffffffffffffffffffff168152602001908152602001600020546106589190611cbc565b610d82565b6001905092915050565b600560009054906101000a900460ff16156106b7576040517f08c379a00000000000000000000000000000000000000000000000000000000081526004016106ae90611bb4565b60405180910390fd5b6106c182826111ce565b5050565b6106d66106d0610d7a565b82611258565b50565b60008060008373ffffffffffffffffffffffffffffffffffffffff1673ffffffffffffffffffffffffffffffffffffffff168152602001908152602001600020549050919050565b610729610d7a565b73ffffffffffffffffffffffffffffffffffffffff166107476108d6565b73ffffffffffffffffffffffffffffffffffffffff161461079d576040517f08c379a000000000000000000000000000000000000000000000000000000000815260040161079490611af4565b60405180910390fd5b6107a7600061142f565b565b6000808251116107ee576040517f08c379a00000000000000000000000000000000000000000000000000000000081526004016107e590611b94565b60405180910390fd5b6107f88484610a7d565b90509392505050565b60006108148361080f610d7a565b610a9b565b905081811015610859576040517f08c379a000000000000000000000000000000000000000000000000000000000815260040161085090611b14565b60405180910390fd5b61086d83610865610d7a565b848403610d82565b6108778383611258565b505050565b600560009054906101000a900460ff16156108cc576040517f08c379a00000000000000000000000000000000000000000000000000000000081526004016108c390611bb4565b60405180910390fd5b6108d46114f5565b565b6000600560019054906101000a900473ffffffffffffffffffffffffffffffffffffffff16905090565b60606004805461090f90611ddd565b80601f016020809104026020016040519081016040528092919081815260200182805461093b90611ddd565b80156109885780601f1061095d57610100808354040283529160200191610988565b820191906000526020600020905b81548152906001019060200180831161096b57829003601f168201915b5050505050905090565b600080600160006109a1610d7a565b73ffffffffffffffffffffffffffffffffffffffff1673ffffffffffffffffffffffffffffffffffffffff16815260200190815260200160002060008573ffffffffffffffffffffffffffffffffffffffff1673ffffffffffffffffffffffffffffffffffffffff16815260200190815260200160002054905082811015610a5e576040517f08c379a0000000000000000000000000000000000000000000000000000000008152600401610a5590611bd4565b60405180910390fd5b610a72610a69610d7a565b85858403610d82565b600191505092915050565b6000610a91610a8a610d7a565b8484610f4d565b6001905092915050565b6000600160008473ffffffffffffffffffffffffffffffffffffffff1673ffffffffffffffffffffffffffffffffffffffff16815260200190815260200160002060008373ffffffffffffffffffffffffffffffffffffffff1673ffffffffffffffffffffffffffffffffffffffff16815260200190815260200160002054905092915050565b610b2a610d7a565b73ffffffffffffffffffffffffffffffffffffffff16610b486108d6565b73ffffffffffffffffffffffffffffffffffffffff1614610b9e576040517f08c379a0000000000000000000000000000000000000000000000000000000008152600401610b9590611af4565b60405180910390fd5b600073ffffffffffffffffffffffffffffffffffffffff168173ffffffffffffffffffffffffffffffffffffffff161415610c0e576040517f08c379a0000000000000000000000000000000000000000000000000000000008152600401610c0590611a74565b60405180910390fd5b610c178161142f565b50565b600073ffffffffffffffffffffffffffffffffffffffff168273ffffffffffffffffffffffffffffffffffffffff161415610c8a576040517f08c379a0000000000000000000000000000000000000000000000000000000008152600401610c8190611bf4565b60405180910390fd5b610c966000838361153e565b8060026000828254610ca89190611cbc565b92505081905550806000808473ffffffffffffffffffffffffffffffffffffffff1673ffffffffffffffffffffffffffffffffffffffff1681526020019081526020016000206000828254610cfd9190611cbc565b925050819055508173ffffffffffffffffffffffffffffffffffffffff16600073ffffffffffffffffffffffffffffffffffffffff167fddf252ad1be2c89b69c2b068fc378daa952ba7f163c4a11628f55a4df523b3ef83604051610d629190611c14565b60405180910390a3610d7660008383611543565b5050565b600033905090565b600073ffffffffffffffffffffffffffffffffffffffff168373ffffffffffffffffffffffffffffffffffffffff161415610df2576040517f08c379a0000000000000000000000000000000000000000000000000000000008152600401610de990611b74565b60405180910390fd5b600073ffffffffffffffffffffffffffffffffffffffff168273ffffffffffffffffffffffffffffffffffffffff161415610e62576040517f08c379a0000000000000000000000000000000000000000000000000000000008152600401610e5990611a94565b60405180910390fd5b80600160008573ffffffffffffffffffffffffffffffffffffffff1673ffffffffffffffffffffffffffffffffffffffff16815260200190815260200160002060008473ffffffffffffffffffffffffffffffffffffffff1673ffffffffffffffffffffffffffffffffffffffff168152602001908152602001600020819055508173ffffffffffffffffffffffffffffffffffffffff168373ffffffffffffffffffffffffffffffffffffffff167f8c5be1e5ebec7d5bd14f71427d1e84f3dd0314c0f7b2291e5b200ac8c7c3b92583604051610f409190611c14565b60405180910390a3505050565b600073ffffffffffffffffffffffffffffffffffffffff168373ffffffffffffffffffffffffffffffffffffffff161415610fbd576040517f08c379a0000000000000000000000000000000000000000000000000000000008152600401610fb490611b54565b60405180910390fd5b600073ffffffffffffffffffffffffffffffffffffffff168273ffffffffffffffffffffffffffffffffffffffff16141561102d576040517f08c379a000000000000000000000000000000000000000000000000000000000815260040161102490611a34565b60405180910390fd5b61103883838361153e565b60008060008573ffffffffffffffffffffffffffffffffffffffff1673ffffffffffffffffffffffffffffffffffffffff168152602001908152602001600020549050818110156110be576040517f08c379a00000000000000000000000000000000000000000000000000000000081526004016110b590611ab4565b60405180910390fd5b8181036000808673ffffffffffffffffffffffffffffffffffffffff1673ffffffffffffffffffffffffffffffffffffffff16815260200190815260200160002081905550816000808573ffffffffffffffffffffffffffffffffffffffff1673ffffffffffffffffffffffffffffffffffffffff16815260200190815260200160002060008282546111519190611cbc565b925050819055508273ffffffffffffffffffffffffffffffffffffffff168473ffffffffffffffffffffffffffffffffffffffff167fddf252ad1be2c89b69c2b068fc378daa952ba7f163c4a11628f55a4df523b3ef846040516111b59190611c14565b60405180910390a36111c8848484611543565b50505050565b6111d6610d7a565b73ffffffffffffffffffffffffffffffffffffffff166111f46108d6565b73ffffffffffffffffffffffffffffffffffffffff161461124a576040517f08c379a000000000000000000000000000000000000000000000000000000000815260040161124190611af4565b60405180910390fd5b6112548282610c1a565b5050565b600073ffffffffffffffffffffffffffffffffffffffff168273ffffffffffffffffffffffffffffffffffffffff1614156112c8576040517f08c379a00000000000000000000000000000000000000000000000000000000081526004016112bf90611b34565b60405180910390fd5b6112d48260008361153e565b60008060008473ffffffffffffffffffffffffffffffffffffffff1673ffffffffffffffffffffffffffffffffffffffff1681526020019081526020016000205490508181101561135a576040517f08c379a000000000000000000000000000000000000000000000000000000000815260040161135190611a54565b60405180910390fd5b8181036000808573ffffffffffffffffffffffffffffffffffffffff1673ffffffffffffffffffffffffffffffffffffffff1681526020019081526020016000208190555081600260008282546113b19190611d12565b92505081905550600073ffffffffffffffffffffffffffffffffffffffff168373ffffffffffffffffffffffffffffffffffffffff167fddf252ad1be2c89b69c2b068fc378daa952ba7f163c4a11628f55a4df523b3ef846040516114169190611c14565b60405180910390a361142a83600084611543565b505050565b6000600560019054906101000a900473ffffffffffffffffffffffffffffffffffffffff16905081600560016101000a81548173ffffffffffffffffffffffffffffffffffffffff021916908373ffffffffffffffffffffffffffffffffffffffff1602179055508173ffffffffffffffffffffffffffffffffffffffff168173ffffffffffffffffffffffffffffffffffffffff167f8be0079c531659141344cd1fd0a4f28419497f9722a3daafe3b4186f6b6457e060405160405180910390a35050565b6001600560006101000a81548160ff0219169083151502179055507fae5184fba832cb2b1f702aca6117b8d265eaf03ad33eb133f19dde0f5920fa0860405160405180910390a1565b505050565b505050565b600061155b61155684611c6f565b611c4a565b90508281526020810184848401111561157357600080fd5b61157e848285611d9b565b509392505050565b6000813590506115958161230d565b92915050565b600082601f8301126115ac57600080fd5b81356115bc848260208601611548565b91505092915050565b6000813590506115d481612324565b92915050565b6000602082840312156115ec57600080fd5b60006115fa84828501611586565b91505092915050565b6000806040838503121561161657600080fd5b600061162485828601611586565b925050602061163585828601611586565b9150509250929050565b60008060006060848603121561165457600080fd5b600061166286828701611586565b935050602061167386828701611586565b9250506040611684868287016115c5565b9150509250925092565b600080604083850312156116a157600080fd5b60006116af85828601611586565b92505060206116c0858286016115c5565b9150509250929050565b6000806000606084860312156116df57600080fd5b60006116ed86828701611586565b93505060206116fe868287016115c5565b925050604084013567ffffffffffffffff81111561171b57600080fd5b6117278682870161159b565b9150509250925092565b60006020828403121561174357600080fd5b6000611751848285016115c5565b91505092915050565b61176381611d46565b82525050565b61177281611d58565b82525050565b600061178382611ca0565b61178d8185611cab565b935061179d818560208601611daa565b6117a681611ecd565b840191505092915050565b60006117be602383611cab565b91506117c982611ede565b604082019050919050565b60006117e1602283611cab565b91506117ec82611f2d565b604082019050919050565b6000611804602683611cab565b915061180f82611f7c565b604082019050919050565b6000611827602283611cab565b915061183282611fcb565b604082019050919050565b600061184a602683611cab565b91506118558261201a565b604082019050919050565b600061186d602883611cab565b915061187882612069565b604082019050919050565b6000611890602083611cab565b915061189b826120b8565b602082019050919050565b60006118b3602483611cab565b91506118be826120e1565b604082019050919050565b60006118d6602183611cab565b91506118e182612130565b604082019050919050565b60006118f9602583611cab565b91506119048261217f565b604082019050919050565b600061191c602483611cab565b9150611927826121ce565b604082019050919050565b600061193f601183611cab565b915061194a8261221d565b602082019050919050565b6000611962602283611cab565b915061196d82612246565b604082019050919050565b6000611985602583611cab565b915061199082612295565b604082019050919050565b60006119a8601f83611cab565b91506119b3826122e4565b602082019050919050565b6119c781611d84565b82525050565b6119d681611d8e565b82525050565b60006020820190506119f1600083018461175a565b92915050565b6000602082019050611a0c6000830184611769565b92915050565b60006020820190508181036000830152611a2c8184611778565b905092915050565b60006020820190508181036000830152611a4d816117b1565b9050919050565b60006020820190508181036000830152611a6d816117d4565b9050919050565b60006020820190508181036000830152611a8d816117f7565b9050919050565b60006020820190508181036000830152611aad8161181a565b9050919050565b60006020820190508181036000830152611acd8161183d565b9050919050565b60006020820190508181036000830152611aed81611860565b9050919050565b60006020820190508181036000830152611b0d81611883565b9050919050565b60006020820190508181036000830152611b2d816118a6565b9050919050565b60006020820190508181036000830152611b4d816118c9565b9050919050565b60006020820190508181036000830152611b6d816118ec565b9050919050565b60006020820190508181036000830152611b8d8161190f565b9050919050565b60006020820190508181036000830152611bad81611932565b9050919050565b60006020820190508181036000830152611bcd81611955565b9050919050565b60006020820190508181036000830152611bed81611978565b9050919050565b60006020820190508181036000830152611c0d8161199b565b9050919050565b6000602082019050611c2960008301846119be565b92915050565b6000602082019050611c4460008301846119cd565b92915050565b6000611c54611c65565b9050611c608282611e0f565b919050565b6000604051905090565b600067ffffffffffffffff821115611c8a57611c89611e9e565b5b611c9382611ecd565b9050602081019050919050565b600081519050919050565b600082825260208201905092915050565b6000611cc782611d84565b9150611cd283611d84565b9250827fffffffffffffffffffffffffffffffffffffffffffffffffffffffffffffffff03821115611d0757611d06611e40565b5b828201905092915050565b6000611d1d82611d84565b9150611d2883611d84565b925082821015611d3b57611d3a611e40565b5b828203905092915050565b6000611d5182611d64565b9050919050565b60008115159050919050565b600073ffffffffffffffffffffffffffffffffffffffff82169050919050565b6000819050919050565b600060ff82169050919050565b82818337600083830152505050565b60005b83811015611dc8578082015181840152602081019050611dad565b83811115611dd7576000848401525b50505050565b60006002820490506001821680611df557607f821691505b60208210811415611e0957611e08611e6f565b5b50919050565b611e1882611ecd565b810181811067ffffffffffffffff82111715611e3757611e36611e9e565b5b80604052505050565b7f4e487b7100000000000000000000000000000000000000000000000000000000600052601160045260246000fd5b7f4e487b7100000000000000000000000000000000000000000000000000000000600052602260045260246000fd5b7f4e487b7100000000000000000000000000000000000000000000000000000000600052604160045260246000fd5b6000601f19601f8301169050919050565b7f45524332303a207472616e7366657220746f20746865207a65726f206164647260008201527f6573730000000000000000000000000000000000000000000000000000000000602082015250565b7f45524332303a206275726e20616d6f756e7420657863656564732062616c616e60008201527f6365000000000000000000000000000000000000000000000000000000000000602082015250565b7f4f776e61626c653a206e6577206f776e657220697320746865207a65726f206160008201527f6464726573730000000000000000000000000000000000000000000000000000602082015250565b7f45524332303a20617070726f766520746f20746865207a65726f20616464726560008201527f7373000000000000000000000000000000000000000000000000000000000000602082015250565b7f45524332303a207472616e7366657220616d6f756e742065786365656473206260008201527f616c616e63650000000000000000000000000000000000000000000000000000602082015250565b7f45524332303a207472616e7366657220616d6f756e742065786365656473206160008201527f6c6c6f77616e6365000000000000000000000000000000000000000000000000602082015250565b7f4f776e61626c653a2063616c6c6572206973206e6f7420746865206f776e6572600082015250565b7f45524332303a206275726e20616d6f756e74206578636565647320616c6c6f7760008201527f616e636500000000000000000000000000000000000000000000000000000000602082015250565b7f45524332303a206275726e2066726f6d20746865207a65726f2061646472657360008201527f7300000000000000000000000000000000000000000000000000000000000000602082015250565b7f45524332303a207472616e736665722066726f6d20746865207a65726f20616460008201527f6472657373000000000000000000000000000000000000000000000000000000602082015250565b7f45524332303a20617070726f76652066726f6d20746865207a65726f2061646460008201527f7265737300000000000000000000000000000000000000000000000000000000602082015250565b7f4e6f6e6365206973207265717569726564000000000000000000000000000000600082015250565b7f45524332304d696e7461626c653a206d696e74696e672069732066696e69736860008201527f6564000000000000000000000000000000000000000000000000000000000000602082015250565b7f45524332303a2064656372656173656420616c6c6f77616e63652062656c6f7760008201527f207a65726f000000000000000000000000000000000000000000000000000000602082015250565b7f45524332303a206d696e7420746f20746865207a65726f206164647265737300600082015250565b61231681611d46565b811461232157600080fd5b50565b61232d81611d84565b811461233857600080fd5b5056fea264697066735822122091455fb0490ca982a2e4a5113ab06e256d470758055b82b375eb4435fee9b7cd64736f6c63430008040033",
  "linkReferences": {},
  "deployedLinkReferences": {}
}