{
  "_format": "hh-sol-artifact-1",
  "contractName": "WChickToken",
  "sourceName": "contracts/WChickToken.sol",
  "abi": [
    {
      "inputs": [
        {
          "internalType": "string",
          "name": "name",
          "type": "string"
        },
        {
          "internalType": "string",
          "name": "symbol",
          "type": "string"
        },
        {
          "internalType": "uint256",
          "name": "initialBalance",
          "type": "uint256"
        }
      ],
      "stateMutability": "nonpayable",
      "type": "constructor"
    },
    {
      "anonymous": false,
      "inputs": [
        {
          "indexed": true,
          "internalType": "address",
          "name": "owner",
          "type": "address"
        },
        {
          "indexed": true,
          "internalType": "address",
          "name": "spender",
          "type": "address"
        },
        {
          "indexed": false,
          "internalType": "uint256",
          "name": "value",
          "type": "uint256"
        }
      ],
      "name": "Approval",
      "type": "event"
    },
    {
      "anonymous": false,
      "inputs": [],
      "name": "MintFinished",
      "type": "event"
    },
    {
      "anonymous": false,
      "inputs": [
        {
          "indexed": true,
          "internalType": "address",
          "name": "previousOwner",
          "type": "address"
        },
        {
          "indexed": true,
          "internalType": "address",
          "name": "newOwner",
          "type": "address"
        }
      ],
      "name": "OwnershipTransferred",
      "type": "event"
    },
    {
      "anonymous": false,
      "inputs": [
        {
          "indexed": true,
          "internalType": "address",
          "name": "from",
          "type": "address"
        },
        {
          "indexed": true,
          "internalType": "address",
          "name": "to",
          "type": "address"
        },
        {
          "indexed": false,
          "internalType": "uint256",
          "name": "value",
          "type": "uint256"
        }
      ],
      "name": "Transfer",
      "type": "event"
    },
    {
      "inputs": [
        {
          "internalType": "address",
          "name": "owner",
          "type": "address"
        },
        {
          "internalType": "address",
          "name": "spender",
          "type": "address"
        }
      ],
      "name": "allowance",
      "outputs": [
        {
          "internalType": "uint256",
          "name": "",
          "type": "uint256"
        }
      ],
      "stateMutability": "view",
      "type": "function"
    },
    {
      "inputs": [
        {
          "internalType": "address",
          "name": "spender",
          "type": "address"
        },
        {
          "internalType": "uint256",
          "name": "amount",
          "type": "uint256"
        }
      ],
      "name": "approve",
      "outputs": [
        {
          "internalType": "bool",
          "name": "",
          "type": "bool"
        }
      ],
      "stateMutability": "nonpayable",
      "type": "function"
    },
    {
      "inputs": [
        {
          "internalType": "address",
          "name": "account",
          "type": "address"
        }
      ],
      "name": "balanceOf",
      "outputs": [
        {
          "internalType": "uint256",
          "name": "",
          "type": "uint256"
        }
      ],
      "stateMutability": "view",
      "type": "function"
    },
    {
      "inputs": [
        {
          "internalType": "uint256",
          "name": "amount",
          "type": "uint256"
        }
      ],
      "name": "burn",
      "outputs": [],
      "stateMutability": "nonpayable",
      "type": "function"
    },
    {
      "inputs": [
        {
          "internalType": "address",
          "name": "account",
          "type": "address"
        },
        {
          "internalType": "uint256",
          "name": "amount",
          "type": "uint256"
        }
      ],
      "name": "burnFrom",
      "outputs": [],
      "stateMutability": "nonpayable",
      "type": "function"
    },
    {
      "inputs": [],
      "name": "decimals",
      "outputs": [
        {
          "internalType": "uint8",
          "name": "",
          "type": "uint8"
        }
      ],
      "stateMutability": "pure",
      "type": "function"
    },
    {
      "inputs": [
        {
          "internalType": "address",
          "name": "spender",
          "type": "address"
        },
        {
          "internalType": "uint256",
          "name": "subtractedValue",
          "type": "uint256"
        }
      ],
      "name": "decreaseAllowance",
      "outputs": [
        {
          "internalType": "bool",
          "name": "",
          "type": "bool"
        }
      ],
      "stateMutability": "nonpayable",
      "type": "function"
    },
    {
      "inputs": [],
      "name": "finishMinting",
      "outputs": [],
      "stateMutability": "nonpayable",
      "type": "function"
    },
    {
      "inputs": [
        {
          "internalType": "address",
          "name": "spender",
          "type": "address"
        },
        {
          "internalType": "uint256",
          "name": "addedValue",
          "type": "uint256"
        }
      ],
      "name": "increaseAllowance",
      "outputs": [
        {
          "internalType": "bool",
          "name": "",
          "type": "bool"
        }
      ],
      "stateMutability": "nonpayable",
      "type": "function"
    },
    {
      "inputs": [
        {
          "internalType": "address",
          "name": "recipient",
          "type": "address"
        },
        {
          "internalType": "uint256",
          "name": "amount",
          "type": "uint256"
        },
        {
          "internalType": "uint256",
          "name": "nonce",
          "type": "uint256"
        }
      ],
      "name": "migrate",
      "outputs": [
        {
          "internalType": "bool",
          "name": "",
          "type": "bool"
        }
      ],
      "stateMutability": "nonpayable",
      "type": "function"
    },
    {
      "inputs": [
        {
          "internalType": "address",
          "name": "account",
          "type": "address"
        },
        {
          "internalType": "uint256",
          "name": "amount",
          "type": "uint256"
        }
      ],
      "name": "mint",
      "outputs": [],
      "stateMutability": "nonpayable",
      "type": "function"
    },
    {
      "inputs": [],
      "name": "mintingFinished",
      "outputs": [
        {
          "internalType": "bool",
          "name": "",
          "type": "bool"
        }
      ],
      "stateMutability": "view",
      "type": "function"
    },
    {
      "inputs": [],
      "name": "name",
      "outputs": [
        {
          "internalType": "string",
          "name": "",
          "type": "string"
        }
      ],
      "stateMutability": "view",
      "type": "function"
    },
    {
      "inputs": [],
      "name": "owner",
      "outputs": [
        {
          "internalType": "address",
          "name": "",
          "type": "address"
        }
      ],
      "stateMutability": "view",
      "type": "function"
    },
    {
      "inputs": [],
      "name": "renounceOwnership",
      "outputs": [],
      "stateMutability": "nonpayable",
      "type": "function"
    },
    {
      "inputs": [],
      "name": "symbol",
      "outputs": [
        {
          "internalType": "string",
          "name": "",
          "type": "string"
        }
      ],
      "stateMutability": "view",
      "type": "function"
    },
    {
      "inputs": [],
      "name": "totalSupply",
      "outputs": [
        {
          "internalType": "uint256",
          "name": "",
          "type": "uint256"
        }
      ],
      "stateMutability": "view",
      "type": "function"
    },
    {
      "inputs": [
        {
          "internalType": "address",
          "name": "recipient",
          "type": "address"
        },
        {
          "internalType": "uint256",
          "name": "amount",
          "type": "uint256"
        }
      ],
      "name": "transfer",
      "outputs": [
        {
          "internalType": "bool",
          "name": "",
          "type": "bool"
        }
      ],
      "stateMutability": "nonpayable",
      "type": "function"
    },
    {
      "inputs": [
        {
          "internalType": "address",
          "name": "sender",
          "type": "address"
        },
        {
          "internalType": "address",
          "name": "recipient",
          "type": "address"
        },
        {
          "internalType": "uint256",
          "name": "amount",
          "type": "uint256"
        }
      ],
      "name": "transferFrom",
      "outputs": [
        {
          "internalType": "bool",
          "name": "",
          "type": "bool"
        }
      ],
      "stateMutability": "nonpayable",
      "type": "function"
    },
    {
      "inputs": [
        {
          "internalType": "address",
          "name": "newOwner",
          "type": "address"
        }
      ],
      "name": "transferOwnership",
      "outputs": [],
      "stateMutability": "nonpayable",
      "type": "function"
    }
  ],
  "bytecode": "0x60806040526000600560006101000a81548160ff0219169083151502179055503480156200002c57600080fd5b5060405162002e2538038062002e2583398181016040528101906200005291906200059a565b828281600390805190602001906200006c92919062000461565b5080600490805190602001906200008592919062000461565b505050620000a86200009c6200013360201b60201c565b6200013b60201b60201c565b60008111620000ee576040517f08c379a0000000000000000000000000000000000000000000000000000000008152600401620000e590620006a8565b60405180910390fd5b6200012a33620001036200020160201b60201c565b600a62000111919062000853565b836200011e919062000990565b6200020a60201b60201c565b50505062000bea565b600033905090565b6000600560019054906101000a900473ffffffffffffffffffffffffffffffffffffffff16905081600560016101000a81548173ffffffffffffffffffffffffffffffffffffffff021916908373ffffffffffffffffffffffffffffffffffffffff1602179055508173ffffffffffffffffffffffffffffffffffffffff168173ffffffffffffffffffffffffffffffffffffffff167f8be0079c531659141344cd1fd0a4f28419497f9722a3daafe3b4186f6b6457e060405160405180910390a35050565b60006009905090565b6200021a6200013360201b60201c565b73ffffffffffffffffffffffffffffffffffffffff1662000240620002b460201b60201c565b73ffffffffffffffffffffffffffffffffffffffff161462000299576040517f08c379a00000000000000000000000000000000000000000000000000000000081526004016200029090620006ca565b60405180910390fd5b620002b08282620002de60201b62000c191760201c565b5050565b6000600560019054906101000a900473ffffffffffffffffffffffffffffffffffffffff16905090565b600073ffffffffffffffffffffffffffffffffffffffff168273ffffffffffffffffffffffffffffffffffffffff16141562000351576040517f08c379a00000000000000000000000000000000000000000000000000000000081526004016200034890620006ec565b60405180910390fd5b62000365600083836200045760201b60201c565b80600260008282546200037991906200079b565b92505081905550806000808473ffffffffffffffffffffffffffffffffffffffff1673ffffffffffffffffffffffffffffffffffffffff1681526020019081526020016000206000828254620003d091906200079b565b925050819055508173ffffffffffffffffffffffffffffffffffffffff16600073ffffffffffffffffffffffffffffffffffffffff167fddf252ad1be2c89b69c2b068fc378daa952ba7f163c4a11628f55a4df523b3ef836040516200043791906200070e565b60405180910390a362000453600083836200045c60201b60201c565b5050565b505050565b505050565b8280546200046f9062000a3e565b90600052602060002090601f016020900481019282620004935760008555620004df565b82601f10620004ae57805160ff1916838001178555620004df565b82800160010185558215620004df579182015b82811115620004de578251825591602001919060010190620004c1565b5b509050620004ee9190620004f2565b5090565b5b808211156200050d576000816000905550600101620004f3565b5090565b600062000528620005228462000754565b6200072b565b9050828152602081018484840111156200054157600080fd5b6200054e84828562000a08565b509392505050565b600082601f8301126200056857600080fd5b81516200057a84826020860162000511565b91505092915050565b600081519050620005948162000bd0565b92915050565b600080600060608486031215620005b057600080fd5b600084015167ffffffffffffffff811115620005cb57600080fd5b620005d98682870162000556565b935050602084015167ffffffffffffffff811115620005f757600080fd5b620006058682870162000556565b9250506040620006188682870162000583565b9150509250925092565b600062000631601d836200078a565b91506200063e8262000b55565b602082019050919050565b6000620006586020836200078a565b9150620006658262000b7e565b602082019050919050565b60006200067f601f836200078a565b91506200068c8262000ba7565b602082019050919050565b620006a281620009f1565b82525050565b60006020820190508181036000830152620006c38162000622565b9050919050565b60006020820190508181036000830152620006e58162000649565b9050919050565b60006020820190508181036000830152620007078162000670565b9050919050565b600060208201905062000725600083018462000697565b92915050565b6000620007376200074a565b905062000745828262000a74565b919050565b6000604051905090565b600067ffffffffffffffff82111562000772576200077162000b08565b5b6200077d8262000b37565b9050602081019050919050565b600082825260208201905092915050565b6000620007a882620009f1565b9150620007b583620009f1565b9250827fffffffffffffffffffffffffffffffffffffffffffffffffffffffffffffffff03821115620007ed57620007ec62000aaa565b5b828201905092915050565b6000808291508390505b60018511156200084a5780860481111562000822576200082162000aaa565b5b6001851615620008325780820291505b8081029050620008428562000b48565b945062000802565b94509492505050565b60006200086082620009f1565b91506200086d83620009fb565b92506200089c7fffffffffffffffffffffffffffffffffffffffffffffffffffffffffffffffff8484620008a4565b905092915050565b600082620008b6576001905062000989565b81620008c6576000905062000989565b8160018114620008df5760028114620008ea5762000920565b600191505062000989565b60ff841115620008ff57620008fe62000aaa565b5b8360020a91508482111562000919576200091862000aaa565b5b5062000989565b5060208310610133831016604e8410600b84101617156200095a5782820a90508381111562000954576200095362000aaa565b5b62000989565b620009698484846001620007f8565b9250905081840481111562000983576200098262000aaa565b5b81810290505b9392505050565b60006200099d82620009f1565b9150620009aa83620009f1565b9250817fffffffffffffffffffffffffffffffffffffffffffffffffffffffffffffffff0483118215151615620009e657620009e562000aaa565b5b828202905092915050565b6000819050919050565b600060ff82169050919050565b60005b8381101562000a2857808201518184015260208101905062000a0b565b8381111562000a38576000848401525b50505050565b6000600282049050600182168062000a5757607f821691505b6020821081141562000a6e5762000a6d62000ad9565b5b50919050565b62000a7f8262000b37565b810181811067ffffffffffffffff8211171562000aa15762000aa062000b08565b5b80604052505050565b7f4e487b7100000000000000000000000000000000000000000000000000000000600052601160045260246000fd5b7f4e487b7100000000000000000000000000000000000000000000000000000000600052602260045260246000fd5b7f4e487b7100000000000000000000000000000000000000000000000000000000600052604160045260246000fd5b6000601f19601f8301169050919050565b60008160011c9050919050565b7f77436869636b3a20537570706c792063616e6e6f74206265207a65726f000000600082015250565b7f4f776e61626c653a2063616c6c6572206973206e6f7420746865206f776e6572600082015250565b7f45524332303a206d696e7420746f20746865207a65726f206164647265737300600082015250565b62000bdb81620009f1565b811462000be757600080fd5b50565b61222b8062000bfa6000396000f3fe608060405234801561001057600080fd5b506004361061012c5760003560e01c8063715018a6116100ad578063a457c2d711610071578063a457c2d71461030d578063a9059cbb1461033d578063dd62ed3e1461036d578063f2fde38b1461039d578063fc22d0e5146103b95761012c565b8063715018a6146102a157806379cc6790146102ab5780637d64bcb4146102c75780638da5cb5b146102d157806395d89b41146102ef5761012c565b8063313ce567116100f4578063313ce567146101eb578063395093511461020957806340c10f191461023957806342966c681461025557806370a08231146102715761012c565b806305d2035b1461013157806306fdde031461014f578063095ea7b31461016d57806318160ddd1461019d57806323b872dd146101bb575b600080fd5b6101396103e9565b6040516101469190611976565b60405180910390f35b610157610400565b6040516101649190611991565b60405180910390f35b61018760048036038101906101829190611625565b610492565b6040516101949190611976565b60405180910390f35b6101a56104b0565b6040516101b29190611b93565b60405180910390f35b6101d560048036038101906101d091906115d6565b6104ba565b6040516101e29190611976565b60405180910390f35b6101f36105b2565b6040516102009190611bae565b60405180910390f35b610223600480360381019061021e9190611625565b6105bb565b6040516102309190611976565b60405180910390f35b610253600480360381019061024e9190611625565b610667565b005b61026f600480360381019061026a91906116b0565b6106c5565b005b61028b60048036038101906102869190611571565b6106d9565b6040516102989190611b93565b60405180910390f35b6102a9610721565b005b6102c560048036038101906102c09190611625565b6107a9565b005b6102cf610824565b005b6102d961087e565b6040516102e6919061195b565b60405180910390f35b6102f76108a8565b6040516103049190611991565b60405180910390f35b61032760048036038101906103229190611625565b61093a565b6040516103349190611976565b60405180910390f35b61035760048036038101906103529190611625565b610a25565b6040516103649190611976565b60405180910390f35b6103876004803603810190610382919061159a565b610a43565b6040516103949190611b93565b60405180910390f35b6103b760048036038101906103b29190611571565b610aca565b005b6103d360048036038101906103ce9190611661565b610bc2565b6040516103e09190611976565b60405180910390f35b6000600560009054906101000a900460ff16905090565b60606003805461040f90611cf7565b80601f016020809104026020016040519081016040528092919081815260200182805461043b90611cf7565b80156104885780601f1061045d57610100808354040283529160200191610488565b820191906000526020600020905b81548152906001019060200180831161046b57829003601f168201915b5050505050905090565b60006104a661049f610d79565b8484610d81565b6001905092915050565b6000600254905090565b60006104c7848484610f4c565b6000600160008673ffffffffffffffffffffffffffffffffffffffff1673ffffffffffffffffffffffffffffffffffffffff1681526020019081526020016000206000610512610d79565b73ffffffffffffffffffffffffffffffffffffffff1673ffffffffffffffffffffffffffffffffffffffff16815260200190815260200160002054905082811015610592576040517f08c379a000000000000000000000000000000000000000000000000000000000815260040161058990611a53565b60405180910390fd5b6105a68561059e610d79565b858403610d81565b60019150509392505050565b60006009905090565b600061065d6105c8610d79565b8484600160006105d6610d79565b73ffffffffffffffffffffffffffffffffffffffff1673ffffffffffffffffffffffffffffffffffffffff16815260200190815260200160002060008873ffffffffffffffffffffffffffffffffffffffff1673ffffffffffffffffffffffffffffffffffffffff168152602001908152602001600020546106589190611be5565b610d81565b6001905092915050565b600560009054906101000a900460ff16156106b7576040517f08c379a00000000000000000000000000000000000000000000000000000000081526004016106ae90611b33565b60405180910390fd5b6106c182826111cd565b5050565b6106d66106d0610d79565b82611257565b50565b60008060008373ffffffffffffffffffffffffffffffffffffffff1673ffffffffffffffffffffffffffffffffffffffff168152602001908152602001600020549050919050565b610729610d79565b73ffffffffffffffffffffffffffffffffffffffff1661074761087e565b73ffffffffffffffffffffffffffffffffffffffff161461079d576040517f08c379a000000000000000000000000000000000000000000000000000000000815260040161079490611a73565b60405180910390fd5b6107a7600061142e565b565b60006107bc836107b7610d79565b610a43565b905081811015610801576040517f08c379a00000000000000000000000000000000000000000000000000000000081526004016107f890611a93565b60405180910390fd5b6108158361080d610d79565b848403610d81565b61081f8383611257565b505050565b600560009054906101000a900460ff1615610874576040517f08c379a000000000000000000000000000000000000000000000000000000000815260040161086b90611b33565b60405180910390fd5b61087c6114f4565b565b6000600560019054906101000a900473ffffffffffffffffffffffffffffffffffffffff16905090565b6060600480546108b790611cf7565b80601f01602080910402602001604051908101604052809291908181526020018280546108e390611cf7565b80156109305780601f1061090557610100808354040283529160200191610930565b820191906000526020600020905b81548152906001019060200180831161091357829003601f168201915b5050505050905090565b60008060016000610949610d79565b73ffffffffffffffffffffffffffffffffffffffff1673ffffffffffffffffffffffffffffffffffffffff16815260200190815260200160002060008573ffffffffffffffffffffffffffffffffffffffff1673ffffffffffffffffffffffffffffffffffffffff16815260200190815260200160002054905082811015610a06576040517f08c379a00000000000000000000000000000000000000000000000000000000081526004016109fd90611b53565b60405180910390fd5b610a1a610a11610d79565b85858403610d81565b600191505092915050565b6000610a39610a32610d79565b8484610f4c565b6001905092915050565b6000600160008473ffffffffffffffffffffffffffffffffffffffff1673ffffffffffffffffffffffffffffffffffffffff16815260200190815260200160002060008373ffffffffffffffffffffffffffffffffffffffff1673ffffffffffffffffffffffffffffffffffffffff16815260200190815260200160002054905092915050565b610ad2610d79565b73ffffffffffffffffffffffffffffffffffffffff16610af061087e565b73ffffffffffffffffffffffffffffffffffffffff1614610b46576040517f08c379a0000000000000000000000000000000000000000000000000000000008152600401610b3d90611a73565b60405180910390fd5b600073ffffffffffffffffffffffffffffffffffffffff168173ffffffffffffffffffffffffffffffffffffffff161415610bb6576040517f08c379a0000000000000000000000000000000000000000000000000000000008152600401610bad906119f3565b60405180910390fd5b610bbf8161142e565b50565b6000808211610c06576040517f08c379a0000000000000000000000000000000000000000000000000000000008152600401610bfd90611b13565b60405180910390fd5b610c108484610a25565b90509392505050565b600073ffffffffffffffffffffffffffffffffffffffff168273ffffffffffffffffffffffffffffffffffffffff161415610c89576040517f08c379a0000000000000000000000000000000000000000000000000000000008152600401610c8090611b73565b60405180910390fd5b610c956000838361153d565b8060026000828254610ca79190611be5565b92505081905550806000808473ffffffffffffffffffffffffffffffffffffffff1673ffffffffffffffffffffffffffffffffffffffff1681526020019081526020016000206000828254610cfc9190611be5565b925050819055508173ffffffffffffffffffffffffffffffffffffffff16600073ffffffffffffffffffffffffffffffffffffffff167fddf252ad1be2c89b69c2b068fc378daa952ba7f163c4a11628f55a4df523b3ef83604051610d619190611b93565b60405180910390a3610d7560008383611542565b5050565b600033905090565b600073ffffffffffffffffffffffffffffffffffffffff168373ffffffffffffffffffffffffffffffffffffffff161415610df1576040517f08c379a0000000000000000000000000000000000000000000000000000000008152600401610de890611af3565b60405180910390fd5b600073ffffffffffffffffffffffffffffffffffffffff168273ffffffffffffffffffffffffffffffffffffffff161415610e61576040517f08c379a0000000000000000000000000000000000000000000000000000000008152600401610e5890611a13565b60405180910390fd5b80600160008573ffffffffffffffffffffffffffffffffffffffff1673ffffffffffffffffffffffffffffffffffffffff16815260200190815260200160002060008473ffffffffffffffffffffffffffffffffffffffff1673ffffffffffffffffffffffffffffffffffffffff168152602001908152602001600020819055508173ffffffffffffffffffffffffffffffffffffffff168373ffffffffffffffffffffffffffffffffffffffff167f8c5be1e5ebec7d5bd14f71427d1e84f3dd0314c0f7b2291e5b200ac8c7c3b92583604051610f3f9190611b93565b60405180910390a3505050565b600073ffffffffffffffffffffffffffffffffffffffff168373ffffffffffffffffffffffffffffffffffffffff161415610fbc576040517f08c379a0000000000000000000000000000000000000000000000000000000008152600401610fb390611ad3565b60405180910390fd5b600073ffffffffffffffffffffffffffffffffffffffff168273ffffffffffffffffffffffffffffffffffffffff16141561102c576040517f08c379a0000000000000000000000000000000000000000000000000000000008152600401611023906119b3565b60405180910390fd5b61103783838361153d565b60008060008573ffffffffffffffffffffffffffffffffffffffff1673ffffffffffffffffffffffffffffffffffffffff168152602001908152602001600020549050818110156110bd576040517f08c379a00000000000000000000000000000000000000000000000000000000081526004016110b490611a33565b60405180910390fd5b8181036000808673ffffffffffffffffffffffffffffffffffffffff1673ffffffffffffffffffffffffffffffffffffffff16815260200190815260200160002081905550816000808573ffffffffffffffffffffffffffffffffffffffff1673ffffffffffffffffffffffffffffffffffffffff16815260200190815260200160002060008282546111509190611be5565b925050819055508273ffffffffffffffffffffffffffffffffffffffff168473ffffffffffffffffffffffffffffffffffffffff167fddf252ad1be2c89b69c2b068fc378daa952ba7f163c4a11628f55a4df523b3ef846040516111b49190611b93565b60405180910390a36111c7848484611542565b50505050565b6111d5610d79565b73ffffffffffffffffffffffffffffffffffffffff166111f361087e565b73ffffffffffffffffffffffffffffffffffffffff1614611249576040517f08c379a000000000000000000000000000000000000000000000000000000000815260040161124090611a73565b60405180910390fd5b6112538282610c19565b5050565b600073ffffffffffffffffffffffffffffffffffffffff168273ffffffffffffffffffffffffffffffffffffffff1614156112c7576040517f08c379a00000000000000000000000000000000000000000000000000000000081526004016112be90611ab3565b60405180910390fd5b6112d38260008361153d565b60008060008473ffffffffffffffffffffffffffffffffffffffff1673ffffffffffffffffffffffffffffffffffffffff16815260200190815260200160002054905081811015611359576040517f08c379a0000000000000000000000000000000000000000000000000000000008152600401611350906119d3565b60405180910390fd5b8181036000808573ffffffffffffffffffffffffffffffffffffffff1673ffffffffffffffffffffffffffffffffffffffff1681526020019081526020016000208190555081600260008282546113b09190611c3b565b92505081905550600073ffffffffffffffffffffffffffffffffffffffff168373ffffffffffffffffffffffffffffffffffffffff167fddf252ad1be2c89b69c2b068fc378daa952ba7f163c4a11628f55a4df523b3ef846040516114159190611b93565b60405180910390a361142983600084611542565b505050565b6000600560019054906101000a900473ffffffffffffffffffffffffffffffffffffffff16905081600560016101000a81548173ffffffffffffffffffffffffffffffffffffffff021916908373ffffffffffffffffffffffffffffffffffffffff1602179055508173ffffffffffffffffffffffffffffffffffffffff168173ffffffffffffffffffffffffffffffffffffffff167f8be0079c531659141344cd1fd0a4f28419497f9722a3daafe3b4186f6b6457e060405160405180910390a35050565b6001600560006101000a81548160ff0219169083151502179055507fae5184fba832cb2b1f702aca6117b8d265eaf03ad33eb133f19dde0f5920fa0860405160405180910390a1565b505050565b505050565b600081359050611556816121c7565b92915050565b60008135905061156b816121de565b92915050565b60006020828403121561158357600080fd5b600061159184828501611547565b91505092915050565b600080604083850312156115ad57600080fd5b60006115bb85828601611547565b92505060206115cc85828601611547565b9150509250929050565b6000806000606084860312156115eb57600080fd5b60006115f986828701611547565b935050602061160a86828701611547565b925050604061161b8682870161155c565b9150509250925092565b6000806040838503121561163857600080fd5b600061164685828601611547565b92505060206116578582860161155c565b9150509250929050565b60008060006060848603121561167657600080fd5b600061168486828701611547565b93505060206116958682870161155c565b92505060406116a68682870161155c565b9150509250925092565b6000602082840312156116c257600080fd5b60006116d08482850161155c565b91505092915050565b6116e281611c6f565b82525050565b6116f181611c81565b82525050565b600061170282611bc9565b61170c8185611bd4565b935061171c818560208601611cc4565b61172581611d87565b840191505092915050565b600061173d602383611bd4565b915061174882611d98565b604082019050919050565b6000611760602283611bd4565b915061176b82611de7565b604082019050919050565b6000611783602683611bd4565b915061178e82611e36565b604082019050919050565b60006117a6602283611bd4565b91506117b182611e85565b604082019050919050565b60006117c9602683611bd4565b91506117d482611ed4565b604082019050919050565b60006117ec602883611bd4565b91506117f782611f23565b604082019050919050565b600061180f602083611bd4565b915061181a82611f72565b602082019050919050565b6000611832602483611bd4565b915061183d82611f9b565b604082019050919050565b6000611855602183611bd4565b915061186082611fea565b604082019050919050565b6000611878602583611bd4565b915061188382612039565b604082019050919050565b600061189b602483611bd4565b91506118a682612088565b604082019050919050565b60006118be601183611bd4565b91506118c9826120d7565b602082019050919050565b60006118e1602283611bd4565b91506118ec82612100565b604082019050919050565b6000611904602583611bd4565b915061190f8261214f565b604082019050919050565b6000611927601f83611bd4565b91506119328261219e565b602082019050919050565b61194681611cad565b82525050565b61195581611cb7565b82525050565b600060208201905061197060008301846116d9565b92915050565b600060208201905061198b60008301846116e8565b92915050565b600060208201905081810360008301526119ab81846116f7565b905092915050565b600060208201905081810360008301526119cc81611730565b9050919050565b600060208201905081810360008301526119ec81611753565b9050919050565b60006020820190508181036000830152611a0c81611776565b9050919050565b60006020820190508181036000830152611a2c81611799565b9050919050565b60006020820190508181036000830152611a4c816117bc565b9050919050565b60006020820190508181036000830152611a6c816117df565b9050919050565b60006020820190508181036000830152611a8c81611802565b9050919050565b60006020820190508181036000830152611aac81611825565b9050919050565b60006020820190508181036000830152611acc81611848565b9050919050565b60006020820190508181036000830152611aec8161186b565b9050919050565b60006020820190508181036000830152611b0c8161188e565b9050919050565b60006020820190508181036000830152611b2c816118b1565b9050919050565b60006020820190508181036000830152611b4c816118d4565b9050919050565b60006020820190508181036000830152611b6c816118f7565b9050919050565b60006020820190508181036000830152611b8c8161191a565b9050919050565b6000602082019050611ba8600083018461193d565b92915050565b6000602082019050611bc3600083018461194c565b92915050565b600081519050919050565b600082825260208201905092915050565b6000611bf082611cad565b9150611bfb83611cad565b9250827fffffffffffffffffffffffffffffffffffffffffffffffffffffffffffffffff03821115611c3057611c2f611d29565b5b828201905092915050565b6000611c4682611cad565b9150611c5183611cad565b925082821015611c6457611c63611d29565b5b828203905092915050565b6000611c7a82611c8d565b9050919050565b60008115159050919050565b600073ffffffffffffffffffffffffffffffffffffffff82169050919050565b6000819050919050565b600060ff82169050919050565b60005b83811015611ce2578082015181840152602081019050611cc7565b83811115611cf1576000848401525b50505050565b60006002820490506001821680611d0f57607f821691505b60208210811415611d2357611d22611d58565b5b50919050565b7f4e487b7100000000000000000000000000000000000000000000000000000000600052601160045260246000fd5b7f4e487b7100000000000000000000000000000000000000000000000000000000600052602260045260246000fd5b6000601f19601f8301169050919050565b7f45524332303a207472616e7366657220746f20746865207a65726f206164647260008201527f6573730000000000000000000000000000000000000000000000000000000000602082015250565b7f45524332303a206275726e20616d6f756e7420657863656564732062616c616e60008201527f6365000000000000000000000000000000000000000000000000000000000000602082015250565b7f4f776e61626c653a206e6577206f776e657220697320746865207a65726f206160008201527f6464726573730000000000000000000000000000000000000000000000000000602082015250565b7f45524332303a20617070726f766520746f20746865207a65726f20616464726560008201527f7373000000000000000000000000000000000000000000000000000000000000602082015250565b7f45524332303a207472616e7366657220616d6f756e742065786365656473206260008201527f616c616e63650000000000000000000000000000000000000000000000000000602082015250565b7f45524332303a207472616e7366657220616d6f756e742065786365656473206160008201527f6c6c6f77616e6365000000000000000000000000000000000000000000000000602082015250565b7f4f776e61626c653a2063616c6c6572206973206e6f7420746865206f776e6572600082015250565b7f45524332303a206275726e20616d6f756e74206578636565647320616c6c6f7760008201527f616e636500000000000000000000000000000000000000000000000000000000602082015250565b7f45524332303a206275726e2066726f6d20746865207a65726f2061646472657360008201527f7300000000000000000000000000000000000000000000000000000000000000602082015250565b7f45524332303a207472616e736665722066726f6d20746865207a65726f20616460008201527f6472657373000000000000000000000000000000000000000000000000000000602082015250565b7f45524332303a20617070726f76652066726f6d20746865207a65726f2061646460008201527f7265737300000000000000000000000000000000000000000000000000000000602082015250565b7f4e6f6e6365206973207265717569726564000000000000000000000000000000600082015250565b7f45524332304d696e7461626c653a206d696e74696e672069732066696e69736860008201527f6564000000000000000000000000000000000000000000000000000000000000602082015250565b7f45524332303a2064656372656173656420616c6c6f77616e63652062656c6f7760008201527f207a65726f000000000000000000000000000000000000000000000000000000602082015250565b7f45524332303a206d696e7420746f20746865207a65726f206164647265737300600082015250565b6121d081611c6f565b81146121db57600080fd5b50565b6121e781611cad565b81146121f257600080fd5b5056fea26469706673582212202b01f1a5a171a93e23503169b6d249cb00d812db1333980e4c353b8ab02b9bbe64736f6c63430008040033",
  "linkReferences": {},
  "deployedLinkReferences": {}
}