{
  "_format": "hh-sol-artifact-1",
  "contractName": "WChickToken",
  "sourceName": "contracts/WChickToken.sol",
  "abi": [
    {
      "inputs": [
        {
          "internalType": "string",
          "name": "name",
          "type": "string"
        },
        {
          "internalType": "string",
          "name": "symbol",
          "type": "string"
        },
        {
          "internalType": "uint256",
          "name": "initialBalance",
          "type": "uint256"
        }
      ],
      "stateMutability": "nonpayable",
      "type": "constructor"
    },
    {
      "anonymous": false,
      "inputs": [
        {
          "indexed": true,
          "internalType": "address",
          "name": "owner",
          "type": "address"
        },
        {
          "indexed": true,
          "internalType": "address",
          "name": "spender",
          "type": "address"
        },
        {
          "indexed": false,
          "internalType": "uint256",
          "name": "value",
          "type": "uint256"
        }
      ],
      "name": "Approval",
      "type": "event"
    },
    {
      "anonymous": false,
      "inputs": [],
      "name": "MintFinished",
      "type": "event"
    },
    {
      "anonymous": false,
      "inputs": [
        {
          "indexed": true,
          "internalType": "address",
          "name": "previousOwner",
          "type": "address"
        },
        {
          "indexed": true,
          "internalType": "address",
          "name": "newOwner",
          "type": "address"
        }
      ],
      "name": "OwnershipTransferred",
      "type": "event"
    },
    {
      "anonymous": false,
      "inputs": [
        {
          "indexed": true,
          "internalType": "address",
          "name": "from",
          "type": "address"
        },
        {
          "indexed": true,
          "internalType": "address",
          "name": "to",
          "type": "address"
        },
        {
          "indexed": false,
          "internalType": "uint256",
          "name": "value",
          "type": "uint256"
        }
      ],
      "name": "Transfer",
      "type": "event"
    },
    {
      "inputs": [
        {
          "internalType": "address",
          "name": "owner",
          "type": "address"
        },
        {
          "internalType": "address",
          "name": "spender",
          "type": "address"
        }
      ],
      "name": "allowance",
      "outputs": [
        {
          "internalType": "uint256",
          "name": "",
          "type": "uint256"
        }
      ],
      "stateMutability": "view",
      "type": "function"
    },
    {
      "inputs": [
        {
          "internalType": "address",
          "name": "spender",
          "type": "address"
        },
        {
          "internalType": "uint256",
          "name": "amount",
          "type": "uint256"
        }
      ],
      "name": "approve",
      "outputs": [
        {
          "internalType": "bool",
          "name": "",
          "type": "bool"
        }
      ],
      "stateMutability": "nonpayable",
      "type": "function"
    },
    {
      "inputs": [
        {
          "internalType": "address",
          "name": "account",
          "type": "address"
        }
      ],
      "name": "balanceOf",
      "outputs": [
        {
          "internalType": "uint256",
          "name": "",
          "type": "uint256"
        }
      ],
      "stateMutability": "view",
      "type": "function"
    },
    {
      "inputs": [],
      "name": "decimals",
      "outputs": [
        {
          "internalType": "uint8",
          "name": "",
          "type": "uint8"
        }
      ],
      "stateMutability": "pure",
      "type": "function"
    },
    {
      "inputs": [
        {
          "internalType": "address",
          "name": "spender",
          "type": "address"
        },
        {
          "internalType": "uint256",
          "name": "subtractedValue",
          "type": "uint256"
        }
      ],
      "name": "decreaseAllowance",
      "outputs": [
        {
          "internalType": "bool",
          "name": "",
          "type": "bool"
        }
      ],
      "stateMutability": "nonpayable",
      "type": "function"
    },
    {
      "inputs": [],
      "name": "fee",
      "outputs": [
        {
          "internalType": "uint16",
          "name": "",
          "type": "uint16"
        }
      ],
      "stateMutability": "view",
      "type": "function"
    },
    {
      "inputs": [],
      "name": "finishMinting",
      "outputs": [],
      "stateMutability": "nonpayable",
      "type": "function"
    },
    {
      "inputs": [
        {
          "internalType": "address",
          "name": "spender",
          "type": "address"
        },
        {
          "internalType": "uint256",
          "name": "addedValue",
          "type": "uint256"
        }
      ],
      "name": "increaseAllowance",
      "outputs": [
        {
          "internalType": "bool",
          "name": "",
          "type": "bool"
        }
      ],
      "stateMutability": "nonpayable",
      "type": "function"
    },
    {
      "inputs": [
        {
          "internalType": "address",
          "name": "recipient",
          "type": "address"
        },
        {
          "internalType": "uint256",
          "name": "amount",
          "type": "uint256"
        },
        {
          "internalType": "uint8",
          "name": "targetChainId",
          "type": "uint8"
        },
        {
          "internalType": "uint256",
          "name": "targetAddress",
          "type": "uint256"
        }
      ],
      "name": "migrate",
      "outputs": [
        {
          "internalType": "bool",
          "name": "",
          "type": "bool"
        }
      ],
      "stateMutability": "nonpayable",
      "type": "function"
    },
    {
      "inputs": [
        {
          "internalType": "address",
          "name": "account",
          "type": "address"
        },
        {
          "internalType": "uint256",
          "name": "amount",
          "type": "uint256"
        }
      ],
      "name": "mint",
      "outputs": [],
      "stateMutability": "nonpayable",
      "type": "function"
    },
    {
      "inputs": [],
      "name": "mintingFinished",
      "outputs": [
        {
          "internalType": "bool",
          "name": "",
          "type": "bool"
        }
      ],
      "stateMutability": "view",
      "type": "function"
    },
    {
      "inputs": [],
      "name": "name",
      "outputs": [
        {
          "internalType": "string",
          "name": "",
          "type": "string"
        }
      ],
      "stateMutability": "view",
      "type": "function"
    },
    {
      "inputs": [],
      "name": "owner",
      "outputs": [
        {
          "internalType": "address",
          "name": "",
          "type": "address"
        }
      ],
      "stateMutability": "view",
      "type": "function"
    },
    {
      "inputs": [],
      "name": "presale",
      "outputs": [
        {
          "internalType": "address",
          "name": "",
          "type": "address"
        }
      ],
      "stateMutability": "view",
      "type": "function"
    },
    {
      "inputs": [],
      "name": "renounceOwnership",
      "outputs": [],
      "stateMutability": "nonpayable",
      "type": "function"
    },
    {
      "inputs": [],
      "name": "service",
      "outputs": [
        {
          "internalType": "address",
          "name": "",
          "type": "address"
        }
      ],
      "stateMutability": "view",
      "type": "function"
    },
    {
      "inputs": [
        {
          "internalType": "address",
          "name": "value",
          "type": "address"
        }
      ],
      "name": "setPresale",
      "outputs": [],
      "stateMutability": "nonpayable",
      "type": "function"
    },
    {
      "inputs": [
        {
          "internalType": "address",
          "name": "value",
          "type": "address"
        }
      ],
      "name": "setService",
      "outputs": [],
      "stateMutability": "nonpayable",
      "type": "function"
    },
    {
      "inputs": [
        {
          "internalType": "uint16",
          "name": "feePercent",
          "type": "uint16"
        }
      ],
      "name": "setServiceAccount",
      "outputs": [],
      "stateMutability": "nonpayable",
      "type": "function"
    },
    {
      "inputs": [],
      "name": "symbol",
      "outputs": [
        {
          "internalType": "string",
          "name": "",
          "type": "string"
        }
      ],
      "stateMutability": "view",
      "type": "function"
    },
    {
      "inputs": [],
      "name": "totalSupply",
      "outputs": [
        {
          "internalType": "uint256",
          "name": "",
          "type": "uint256"
        }
      ],
      "stateMutability": "view",
      "type": "function"
    },
    {
      "inputs": [
        {
          "internalType": "address",
          "name": "recipient",
          "type": "address"
        },
        {
          "internalType": "uint256",
          "name": "amount",
          "type": "uint256"
        }
      ],
      "name": "transfer",
      "outputs": [
        {
          "internalType": "bool",
          "name": "",
          "type": "bool"
        }
      ],
      "stateMutability": "nonpayable",
      "type": "function"
    },
    {
      "inputs": [
        {
          "internalType": "address",
          "name": "sender",
          "type": "address"
        },
        {
          "internalType": "address",
          "name": "recipient",
          "type": "address"
        },
        {
          "internalType": "uint256",
          "name": "amount",
          "type": "uint256"
        }
      ],
      "name": "transferFrom",
      "outputs": [
        {
          "internalType": "bool",
          "name": "",
          "type": "bool"
        }
      ],
      "stateMutability": "nonpayable",
      "type": "function"
    },
    {
      "inputs": [
        {
          "internalType": "address",
          "name": "newOwner",
          "type": "address"
        }
      ],
      "name": "transferOwnership",
      "outputs": [],
      "stateMutability": "nonpayable",
      "type": "function"
    }
  ],
  "bytecode": "0x60806040526000600560006101000a81548160ff0219169083151502179055506000600660006101000a81548173ffffffffffffffffffffffffffffffffffffffff021916908373ffffffffffffffffffffffffffffffffffffffff1602179055506000600760006101000a81548173ffffffffffffffffffffffffffffffffffffffff021916908373ffffffffffffffffffffffffffffffffffffffff160217905550600f600760146101000a81548161ffff021916908361ffff160217905550348015620000ce57600080fd5b50604051620031c8380380620031c88339818101604052810190620000f491906200063c565b828281600390805190602001906200010e92919062000503565b5080600490805190602001906200012792919062000503565b5050506200014a6200013e620001d560201b60201c565b620001dd60201b60201c565b6000811162000190576040517f08c379a000000000000000000000000000000000000000000000000000000000815260040162000187906200074a565b60405180910390fd5b620001cc33620001a5620002a360201b60201c565b600a620001b39190620008f5565b83620001c0919062000a32565b620002ac60201b60201c565b50505062000c8c565b600033905090565b6000600560019054906101000a900473ffffffffffffffffffffffffffffffffffffffff16905081600560016101000a81548173ffffffffffffffffffffffffffffffffffffffff021916908373ffffffffffffffffffffffffffffffffffffffff1602179055508173ffffffffffffffffffffffffffffffffffffffff168173ffffffffffffffffffffffffffffffffffffffff167f8be0079c531659141344cd1fd0a4f28419497f9722a3daafe3b4186f6b6457e060405160405180910390a35050565b60006009905090565b620002bc620001d560201b60201c565b73ffffffffffffffffffffffffffffffffffffffff16620002e26200035660201b60201c565b73ffffffffffffffffffffffffffffffffffffffff16146200033b576040517f08c379a000000000000000000000000000000000000000000000000000000000815260040162000332906200076c565b60405180910390fd5b6200035282826200038060201b62000ec41760201c565b5050565b6000600560019054906101000a900473ffffffffffffffffffffffffffffffffffffffff16905090565b600073ffffffffffffffffffffffffffffffffffffffff168273ffffffffffffffffffffffffffffffffffffffff161415620003f3576040517f08c379a0000000000000000000000000000000000000000000000000000000008152600401620003ea906200078e565b60405180910390fd5b6200040760008383620004f960201b60201c565b80600260008282546200041b91906200083d565b92505081905550806000808473ffffffffffffffffffffffffffffffffffffffff1673ffffffffffffffffffffffffffffffffffffffff16815260200190815260200160002060008282546200047291906200083d565b925050819055508173ffffffffffffffffffffffffffffffffffffffff16600073ffffffffffffffffffffffffffffffffffffffff167fddf252ad1be2c89b69c2b068fc378daa952ba7f163c4a11628f55a4df523b3ef83604051620004d99190620007b0565b60405180910390a3620004f560008383620004fe60201b60201c565b5050565b505050565b505050565b828054620005119062000ae0565b90600052602060002090601f01602090048101928262000535576000855562000581565b82601f106200055057805160ff191683800117855562000581565b8280016001018555821562000581579182015b828111156200058057825182559160200191906001019062000563565b5b50905062000590919062000594565b5090565b5b80821115620005af57600081600090555060010162000595565b5090565b6000620005ca620005c484620007f6565b620007cd565b905082815260208101848484011115620005e357600080fd5b620005f084828562000aaa565b509392505050565b600082601f8301126200060a57600080fd5b81516200061c848260208601620005b3565b91505092915050565b600081519050620006368162000c72565b92915050565b6000806000606084860312156200065257600080fd5b600084015167ffffffffffffffff8111156200066d57600080fd5b6200067b86828701620005f8565b935050602084015167ffffffffffffffff8111156200069957600080fd5b620006a786828701620005f8565b9250506040620006ba8682870162000625565b9150509250925092565b6000620006d3601d836200082c565b9150620006e08262000bf7565b602082019050919050565b6000620006fa6020836200082c565b9150620007078262000c20565b602082019050919050565b600062000721601f836200082c565b91506200072e8262000c49565b602082019050919050565b620007448162000a93565b82525050565b600060208201905081810360008301526200076581620006c4565b9050919050565b600060208201905081810360008301526200078781620006eb565b9050919050565b60006020820190508181036000830152620007a98162000712565b9050919050565b6000602082019050620007c7600083018462000739565b92915050565b6000620007d9620007ec565b9050620007e7828262000b16565b919050565b6000604051905090565b600067ffffffffffffffff82111562000814576200081362000baa565b5b6200081f8262000bd9565b9050602081019050919050565b600082825260208201905092915050565b60006200084a8262000a93565b9150620008578362000a93565b9250827fffffffffffffffffffffffffffffffffffffffffffffffffffffffffffffffff038211156200088f576200088e62000b4c565b5b828201905092915050565b6000808291508390505b6001851115620008ec57808604811115620008c457620008c362000b4c565b5b6001851615620008d45780820291505b8081029050620008e48562000bea565b9450620008a4565b94509492505050565b6000620009028262000a93565b91506200090f8362000a9d565b92506200093e7fffffffffffffffffffffffffffffffffffffffffffffffffffffffffffffffff848462000946565b905092915050565b60008262000958576001905062000a2b565b8162000968576000905062000a2b565b81600181146200098157600281146200098c57620009c2565b600191505062000a2b565b60ff841115620009a157620009a062000b4c565b5b8360020a915084821115620009bb57620009ba62000b4c565b5b5062000a2b565b5060208310610133831016604e8410600b8410161715620009fc5782820a905083811115620009f657620009f562000b4c565b5b62000a2b565b62000a0b84848460016200089a565b9250905081840481111562000a255762000a2462000b4c565b5b81810290505b9392505050565b600062000a3f8262000a93565b915062000a4c8362000a93565b9250817fffffffffffffffffffffffffffffffffffffffffffffffffffffffffffffffff048311821515161562000a885762000a8762000b4c565b5b828202905092915050565b6000819050919050565b600060ff82169050919050565b60005b8381101562000aca57808201518184015260208101905062000aad565b8381111562000ada576000848401525b50505050565b6000600282049050600182168062000af957607f821691505b6020821081141562000b105762000b0f62000b7b565b5b50919050565b62000b218262000bd9565b810181811067ffffffffffffffff8211171562000b435762000b4262000baa565b5b80604052505050565b7f4e487b7100000000000000000000000000000000000000000000000000000000600052601160045260246000fd5b7f4e487b7100000000000000000000000000000000000000000000000000000000600052602260045260246000fd5b7f4e487b7100000000000000000000000000000000000000000000000000000000600052604160045260246000fd5b6000601f19601f8301169050919050565b60008160011c9050919050565b7f77436869636b3a20537570706c792063616e6e6f74206265207a65726f000000600082015250565b7f4f776e61626c653a2063616c6c6572206973206e6f7420746865206f776e6572600082015250565b7f45524332303a206d696e7420746f20746865207a65726f206164647265737300600082015250565b62000c7d8162000a93565b811462000c8957600080fd5b50565b61252c8062000c9c6000396000f3fe608060405234801561001057600080fd5b50600436106101585760003560e01c806395d89b41116100c3578063dd62ed3e1161007c578063dd62ed3e146103b7578063ddca3f43146103e7578063edca235f14610405578063f2fde38b14610421578063fb19bee11461043d578063fdea8e0b1461046d57610158565b806395d89b41146102e3578063a457c2d714610301578063a9059cbb14610331578063bf8bdac114610361578063d598d4c91461037d578063d5fcc7b61461039b57610158565b80633950935111610115578063395093511461023557806340c10f191461026557806370a0823114610281578063715018a6146102b15780637d64bcb4146102bb5780638da5cb5b146102c557610158565b806305d2035b1461015d57806306fdde031461017b578063095ea7b31461019957806318160ddd146101c957806323b872dd146101e7578063313ce56714610217575b600080fd5b61016561048b565b6040516101729190611cb3565b60405180910390f35b6101836104a2565b6040516101909190611cce565b60405180910390f35b6101b360048036038101906101ae91906119a8565b610534565b6040516101c09190611cb3565b60405180910390f35b6101d1610552565b6040516101de9190611e8b565b60405180910390f35b61020160048036038101906101fc9190611959565b61055c565b60405161020e9190611cb3565b60405180910390f35b61021f610654565b60405161022c9190611ea6565b60405180910390f35b61024f600480360381019061024a91906119a8565b61065d565b60405161025c9190611cb3565b60405180910390f35b61027f600480360381019061027a91906119a8565b610709565b005b61029b600480360381019061029691906118f4565b610767565b6040516102a89190611e8b565b60405180910390f35b6102b96107af565b005b6102c3610837565b005b6102cd610891565b6040516102da9190611c98565b60405180910390f35b6102eb6108bb565b6040516102f89190611cce565b60405180910390f35b61031b600480360381019061031691906119a8565b61094d565b6040516103289190611cb3565b60405180910390f35b61034b600480360381019061034691906119a8565b610a38565b6040516103589190611cb3565b60405180910390f35b61037b600480360381019061037691906118f4565b610a56565b005b610385610b16565b6040516103929190611c98565b60405180910390f35b6103b560048036038101906103b091906118f4565b610b40565b005b6103d160048036038101906103cc919061191d565b610c00565b6040516103de9190611e8b565b60405180910390f35b6103ef610c87565b6040516103fc9190611e70565b60405180910390f35b61041f600480360381019061041a9190611a47565b610c9f565b005b61043b600480360381019061043691906118f4565b610d3b565b005b610457600480360381019061045291906119e4565b610e33565b6040516104649190611cb3565b60405180910390f35b610475610e9a565b6040516104829190611c98565b60405180910390f35b6000600560009054906101000a900460ff16905090565b6060600380546104b190612088565b80601f01602080910402602001604051908101604052809291908181526020018280546104dd90612088565b801561052a5780601f106104ff5761010080835404028352916020019161052a565b820191906000526020600020905b81548152906001019060200180831161050d57829003601f168201915b5050505050905090565b6000610548610541611024565b848461102c565b6001905092915050565b6000600254905090565b60006105698484846111f7565b6000600160008673ffffffffffffffffffffffffffffffffffffffff1673ffffffffffffffffffffffffffffffffffffffff16815260200190815260200160002060006105b4611024565b73ffffffffffffffffffffffffffffffffffffffff1673ffffffffffffffffffffffffffffffffffffffff16815260200190815260200160002054905082811015610634576040517f08c379a000000000000000000000000000000000000000000000000000000000815260040161062b90611d90565b60405180910390fd5b61064885610640611024565b85840361102c565b60019150509392505050565b60006009905090565b60006106ff61066a611024565b848460016000610678611024565b73ffffffffffffffffffffffffffffffffffffffff1673ffffffffffffffffffffffffffffffffffffffff16815260200190815260200160002060008873ffffffffffffffffffffffffffffffffffffffff1673ffffffffffffffffffffffffffffffffffffffff168152602001908152602001600020546106fa9190611edd565b61102c565b6001905092915050565b600560009054906101000a900460ff1615610759576040517f08c379a000000000000000000000000000000000000000000000000000000000815260040161075090611e10565b60405180910390fd5b61076382826116fd565b5050565b60008060008373ffffffffffffffffffffffffffffffffffffffff1673ffffffffffffffffffffffffffffffffffffffff168152602001908152602001600020549050919050565b6107b7611024565b73ffffffffffffffffffffffffffffffffffffffff166107d5610891565b73ffffffffffffffffffffffffffffffffffffffff161461082b576040517f08c379a000000000000000000000000000000000000000000000000000000000815260040161082290611db0565b60405180910390fd5b6108356000611787565b565b600560009054906101000a900460ff1615610887576040517f08c379a000000000000000000000000000000000000000000000000000000000815260040161087e90611e10565b60405180910390fd5b61088f61184d565b565b6000600560019054906101000a900473ffffffffffffffffffffffffffffffffffffffff16905090565b6060600480546108ca90612088565b80601f01602080910402602001604051908101604052809291908181526020018280546108f690612088565b80156109435780601f1061091857610100808354040283529160200191610943565b820191906000526020600020905b81548152906001019060200180831161092657829003601f168201915b5050505050905090565b6000806001600061095c611024565b73ffffffffffffffffffffffffffffffffffffffff1673ffffffffffffffffffffffffffffffffffffffff16815260200190815260200160002060008573ffffffffffffffffffffffffffffffffffffffff1673ffffffffffffffffffffffffffffffffffffffff16815260200190815260200160002054905082811015610a19576040517f08c379a0000000000000000000000000000000000000000000000000000000008152600401610a1090611e30565b60405180910390fd5b610a2d610a24611024565b8585840361102c565b600191505092915050565b6000610a4c610a45611024565b84846111f7565b6001905092915050565b610a5e611024565b73ffffffffffffffffffffffffffffffffffffffff16610a7c610891565b73ffffffffffffffffffffffffffffffffffffffff1614610ad2576040517f08c379a0000000000000000000000000000000000000000000000000000000008152600401610ac990611db0565b60405180910390fd5b80600660006101000a81548173ffffffffffffffffffffffffffffffffffffffff021916908373ffffffffffffffffffffffffffffffffffffffff16021790555050565b6000600660009054906101000a900473ffffffffffffffffffffffffffffffffffffffff16905090565b610b48611024565b73ffffffffffffffffffffffffffffffffffffffff16610b66610891565b73ffffffffffffffffffffffffffffffffffffffff1614610bbc576040517f08c379a0000000000000000000000000000000000000000000000000000000008152600401610bb390611db0565b60405180910390fd5b80600760006101000a81548173ffffffffffffffffffffffffffffffffffffffff021916908373ffffffffffffffffffffffffffffffffffffffff16021790555050565b6000600160008473ffffffffffffffffffffffffffffffffffffffff1673ffffffffffffffffffffffffffffffffffffffff16815260200190815260200160002060008373ffffffffffffffffffffffffffffffffffffffff1673ffffffffffffffffffffffffffffffffffffffff16815260200190815260200160002054905092915050565b6000600760149054906101000a900461ffff16905090565b610ca7611024565b73ffffffffffffffffffffffffffffffffffffffff16610cc5610891565b73ffffffffffffffffffffffffffffffffffffffff1614610d1b576040517f08c379a0000000000000000000000000000000000000000000000000000000008152600401610d1290611db0565b60405180910390fd5b80600760146101000a81548161ffff021916908361ffff16021790555050565b610d43611024565b73ffffffffffffffffffffffffffffffffffffffff16610d61610891565b73ffffffffffffffffffffffffffffffffffffffff1614610db7576040517f08c379a0000000000000000000000000000000000000000000000000000000008152600401610dae90611db0565b60405180910390fd5b600073ffffffffffffffffffffffffffffffffffffffff168173ffffffffffffffffffffffffffffffffffffffff161415610e27576040517f08c379a0000000000000000000000000000000000000000000000000000000008152600401610e1e90611d30565b60405180910390fd5b610e3081611787565b50565b6000808360ff16118015610e475750600082115b610e86576040517f08c379a0000000000000000000000000000000000000000000000000000000008152600401610e7d90611d10565b60405180910390fd5b610e908585610a38565b9050949350505050565b6000600760009054906101000a900473ffffffffffffffffffffffffffffffffffffffff16905090565b600073ffffffffffffffffffffffffffffffffffffffff168273ffffffffffffffffffffffffffffffffffffffff161415610f34576040517f08c379a0000000000000000000000000000000000000000000000000000000008152600401610f2b90611e50565b60405180910390fd5b610f4060008383611896565b8060026000828254610f529190611edd565b92505081905550806000808473ffffffffffffffffffffffffffffffffffffffff1673ffffffffffffffffffffffffffffffffffffffff1681526020019081526020016000206000828254610fa79190611edd565b925050819055508173ffffffffffffffffffffffffffffffffffffffff16600073ffffffffffffffffffffffffffffffffffffffff167fddf252ad1be2c89b69c2b068fc378daa952ba7f163c4a11628f55a4df523b3ef8360405161100c9190611e8b565b60405180910390a36110206000838361189b565b5050565b600033905090565b600073ffffffffffffffffffffffffffffffffffffffff168373ffffffffffffffffffffffffffffffffffffffff16141561109c576040517f08c379a000000000000000000000000000000000000000000000000000000000815260040161109390611df0565b60405180910390fd5b600073ffffffffffffffffffffffffffffffffffffffff168273ffffffffffffffffffffffffffffffffffffffff16141561110c576040517f08c379a000000000000000000000000000000000000000000000000000000000815260040161110390611d50565b60405180910390fd5b80600160008573ffffffffffffffffffffffffffffffffffffffff1673ffffffffffffffffffffffffffffffffffffffff16815260200190815260200160002060008473ffffffffffffffffffffffffffffffffffffffff1673ffffffffffffffffffffffffffffffffffffffff168152602001908152602001600020819055508173ffffffffffffffffffffffffffffffffffffffff168373ffffffffffffffffffffffffffffffffffffffff167f8c5be1e5ebec7d5bd14f71427d1e84f3dd0314c0f7b2291e5b200ac8c7c3b925836040516111ea9190611e8b565b60405180910390a3505050565b600073ffffffffffffffffffffffffffffffffffffffff168373ffffffffffffffffffffffffffffffffffffffff161415611267576040517f08c379a000000000000000000000000000000000000000000000000000000000815260040161125e90611dd0565b60405180910390fd5b600073ffffffffffffffffffffffffffffffffffffffff168273ffffffffffffffffffffffffffffffffffffffff1614156112d7576040517f08c379a00000000000000000000000000000000000000000000000000000000081526004016112ce90611cf0565b60405180910390fd5b6112e2838383611896565b60008060008573ffffffffffffffffffffffffffffffffffffffff1673ffffffffffffffffffffffffffffffffffffffff16815260200190815260200160002054905081811015611368576040517f08c379a000000000000000000000000000000000000000000000000000000000815260040161135f90611d70565b60405180910390fd5b600082905060008390506000600760009054906101000a900473ffffffffffffffffffffffffffffffffffffffff1673ffffffffffffffffffffffffffffffffffffffff168773ffffffffffffffffffffffffffffffffffffffff16141580156114215750600073ffffffffffffffffffffffffffffffffffffffff16600660009054906101000a900473ffffffffffffffffffffffffffffffffffffffff1673ffffffffffffffffffffffffffffffffffffffff1614155b801561144157506000600760149054906101000a900461ffff1661ffff16115b15611569576103e8600760149054906101000a900461ffff1661ffff16866114699190611f64565b6114739190611f33565b9050600660009054906101000a900473ffffffffffffffffffffffffffffffffffffffff1673ffffffffffffffffffffffffffffffffffffffff168773ffffffffffffffffffffffffffffffffffffffff167fddf252ad1be2c89b69c2b068fc378daa952ba7f163c4a11628f55a4df523b3ef836040516114f49190611e8b565b60405180910390a380856115089190611fbe565b9250600660009054906101000a900473ffffffffffffffffffffffffffffffffffffffff1673ffffffffffffffffffffffffffffffffffffffff168773ffffffffffffffffffffffffffffffffffffffff16141561156857829150600090505b5b8184036000808973ffffffffffffffffffffffffffffffffffffffff1673ffffffffffffffffffffffffffffffffffffffff16815260200190815260200160002081905550600081111561162f5780600080600660009054906101000a900473ffffffffffffffffffffffffffffffffffffffff1673ffffffffffffffffffffffffffffffffffffffff1673ffffffffffffffffffffffffffffffffffffffff16815260200190815260200160002060008282546116279190611edd565b925050819055505b826000808873ffffffffffffffffffffffffffffffffffffffff1673ffffffffffffffffffffffffffffffffffffffff168152602001908152602001600020600082825461167d9190611edd565b925050819055508573ffffffffffffffffffffffffffffffffffffffff168773ffffffffffffffffffffffffffffffffffffffff167fddf252ad1be2c89b69c2b068fc378daa952ba7f163c4a11628f55a4df523b3ef856040516116e19190611e8b565b60405180910390a36116f487878761189b565b50505050505050565b611705611024565b73ffffffffffffffffffffffffffffffffffffffff16611723610891565b73ffffffffffffffffffffffffffffffffffffffff1614611779576040517f08c379a000000000000000000000000000000000000000000000000000000000815260040161177090611db0565b60405180910390fd5b6117838282610ec4565b5050565b6000600560019054906101000a900473ffffffffffffffffffffffffffffffffffffffff16905081600560016101000a81548173ffffffffffffffffffffffffffffffffffffffff021916908373ffffffffffffffffffffffffffffffffffffffff1602179055508173ffffffffffffffffffffffffffffffffffffffff168173ffffffffffffffffffffffffffffffffffffffff167f8be0079c531659141344cd1fd0a4f28419497f9722a3daafe3b4186f6b6457e060405160405180910390a35050565b6001600560006101000a81548160ff0219169083151502179055507fae5184fba832cb2b1f702aca6117b8d265eaf03ad33eb133f19dde0f5920fa0860405160405180910390a1565b505050565b505050565b6000813590506118af8161249a565b92915050565b6000813590506118c4816124b1565b92915050565b6000813590506118d9816124c8565b92915050565b6000813590506118ee816124df565b92915050565b60006020828403121561190657600080fd5b6000611914848285016118a0565b91505092915050565b6000806040838503121561193057600080fd5b600061193e858286016118a0565b925050602061194f858286016118a0565b9150509250929050565b60008060006060848603121561196e57600080fd5b600061197c868287016118a0565b935050602061198d868287016118a0565b925050604061199e868287016118ca565b9150509250925092565b600080604083850312156119bb57600080fd5b60006119c9858286016118a0565b92505060206119da858286016118ca565b9150509250929050565b600080600080608085870312156119fa57600080fd5b6000611a08878288016118a0565b9450506020611a19878288016118ca565b9350506040611a2a878288016118df565b9250506060611a3b878288016118ca565b91505092959194509250565b600060208284031215611a5957600080fd5b6000611a67848285016118b5565b91505092915050565b611a7981611ff2565b82525050565b611a8881612004565b82525050565b6000611a9982611ec1565b611aa38185611ecc565b9350611ab3818560208601612055565b611abc81612147565b840191505092915050565b6000611ad4602383611ecc565b9150611adf82612158565b604082019050919050565b6000611af7601283611ecc565b9150611b02826121a7565b602082019050919050565b6000611b1a602683611ecc565b9150611b25826121d0565b604082019050919050565b6000611b3d602283611ecc565b9150611b488261221f565b604082019050919050565b6000611b60602683611ecc565b9150611b6b8261226e565b604082019050919050565b6000611b83602883611ecc565b9150611b8e826122bd565b604082019050919050565b6000611ba6602083611ecc565b9150611bb18261230c565b602082019050919050565b6000611bc9602583611ecc565b9150611bd482612335565b604082019050919050565b6000611bec602483611ecc565b9150611bf782612384565b604082019050919050565b6000611c0f602283611ecc565b9150611c1a826123d3565b604082019050919050565b6000611c32602583611ecc565b9150611c3d82612422565b604082019050919050565b6000611c55601f83611ecc565b9150611c6082612471565b602082019050919050565b611c7481612010565b82525050565b611c838161203e565b82525050565b611c9281612048565b82525050565b6000602082019050611cad6000830184611a70565b92915050565b6000602082019050611cc86000830184611a7f565b92915050565b60006020820190508181036000830152611ce88184611a8e565b905092915050565b60006020820190508181036000830152611d0981611ac7565b9050919050565b60006020820190508181036000830152611d2981611aea565b9050919050565b60006020820190508181036000830152611d4981611b0d565b9050919050565b60006020820190508181036000830152611d6981611b30565b9050919050565b60006020820190508181036000830152611d8981611b53565b9050919050565b60006020820190508181036000830152611da981611b76565b9050919050565b60006020820190508181036000830152611dc981611b99565b9050919050565b60006020820190508181036000830152611de981611bbc565b9050919050565b60006020820190508181036000830152611e0981611bdf565b9050919050565b60006020820190508181036000830152611e2981611c02565b9050919050565b60006020820190508181036000830152611e4981611c25565b9050919050565b60006020820190508181036000830152611e6981611c48565b9050919050565b6000602082019050611e856000830184611c6b565b92915050565b6000602082019050611ea06000830184611c7a565b92915050565b6000602082019050611ebb6000830184611c89565b92915050565b600081519050919050565b600082825260208201905092915050565b6000611ee88261203e565b9150611ef38361203e565b9250827fffffffffffffffffffffffffffffffffffffffffffffffffffffffffffffffff03821115611f2857611f276120ba565b5b828201905092915050565b6000611f3e8261203e565b9150611f498361203e565b925082611f5957611f586120e9565b5b828204905092915050565b6000611f6f8261203e565b9150611f7a8361203e565b9250817fffffffffffffffffffffffffffffffffffffffffffffffffffffffffffffffff0483118215151615611fb357611fb26120ba565b5b828202905092915050565b6000611fc98261203e565b9150611fd48361203e565b925082821015611fe757611fe66120ba565b5b828203905092915050565b6000611ffd8261201e565b9050919050565b60008115159050919050565b600061ffff82169050919050565b600073ffffffffffffffffffffffffffffffffffffffff82169050919050565b6000819050919050565b600060ff82169050919050565b60005b83811015612073578082015181840152602081019050612058565b83811115612082576000848401525b50505050565b600060028204905060018216806120a057607f821691505b602082108114156120b4576120b3612118565b5b50919050565b7f4e487b7100000000000000000000000000000000000000000000000000000000600052601160045260246000fd5b7f4e487b7100000000000000000000000000000000000000000000000000000000600052601260045260246000fd5b7f4e487b7100000000000000000000000000000000000000000000000000000000600052602260045260246000fd5b6000601f19601f8301169050919050565b7f45524332303a207472616e7366657220746f20746865207a65726f206164647260008201527f6573730000000000000000000000000000000000000000000000000000000000602082015250565b7f7461726765742069732072657175697265640000000000000000000000000000600082015250565b7f4f776e61626c653a206e6577206f776e657220697320746865207a65726f206160008201527f6464726573730000000000000000000000000000000000000000000000000000602082015250565b7f45524332303a20617070726f766520746f20746865207a65726f20616464726560008201527f7373000000000000000000000000000000000000000000000000000000000000602082015250565b7f45524332303a207472616e7366657220616d6f756e742065786365656473206260008201527f616c616e63650000000000000000000000000000000000000000000000000000602082015250565b7f45524332303a207472616e7366657220616d6f756e742065786365656473206160008201527f6c6c6f77616e6365000000000000000000000000000000000000000000000000602082015250565b7f4f776e61626c653a2063616c6c6572206973206e6f7420746865206f776e6572600082015250565b7f45524332303a207472616e736665722066726f6d20746865207a65726f20616460008201527f6472657373000000000000000000000000000000000000000000000000000000602082015250565b7f45524332303a20617070726f76652066726f6d20746865207a65726f2061646460008201527f7265737300000000000000000000000000000000000000000000000000000000602082015250565b7f45524332304d696e7461626c653a206d696e74696e672069732066696e69736860008201527f6564000000000000000000000000000000000000000000000000000000000000602082015250565b7f45524332303a2064656372656173656420616c6c6f77616e63652062656c6f7760008201527f207a65726f000000000000000000000000000000000000000000000000000000602082015250565b7f45524332303a206d696e7420746f20746865207a65726f206164647265737300600082015250565b6124a381611ff2565b81146124ae57600080fd5b50565b6124ba81612010565b81146124c557600080fd5b50565b6124d18161203e565b81146124dc57600080fd5b50565b6124e881612048565b81146124f357600080fd5b5056fea2646970667358221220760860aca13832d0c6134a5b90094dcb32d60e40f03f2d92b45b5380355262de64736f6c63430008040033",
  "linkReferences": {},
  "deployedLinkReferences": {}
}