{
  "_format": "hh-sol-artifact-1",
  "contractName": "ServiceReceiver",
  "sourceName": "contracts/service/ServiceReceiver.sol",
  "abi": [
    {
      "anonymous": false,
      "inputs": [
        {
          "indexed": false,
          "internalType": "string",
          "name": "serviceName",
          "type": "string"
        },
        {
          "indexed": true,
          "internalType": "address",
          "name": "serviceAddress",
          "type": "address"
        }
      ],
      "name": "Created",
      "type": "event"
    },
    {
      "anonymous": false,
      "inputs": [
        {
          "indexed": true,
          "internalType": "address",
          "name": "previousOwner",
          "type": "address"
        },
        {
          "indexed": true,
          "internalType": "address",
          "name": "newOwner",
          "type": "address"
        }
      ],
      "name": "OwnershipTransferred",
      "type": "event"
    },
    {
      "inputs": [
        {
          "internalType": "string",
          "name": "serviceName",
          "type": "string"
        }
      ],
      "name": "getPrice",
      "outputs": [
        {
          "internalType": "uint256",
          "name": "",
          "type": "uint256"
        }
      ],
      "stateMutability": "view",
      "type": "function"
    },
    {
      "inputs": [],
      "name": "owner",
      "outputs": [
        {
          "internalType": "address",
          "name": "",
          "type": "address"
        }
      ],
      "stateMutability": "view",
      "type": "function"
    },
    {
      "inputs": [
        {
          "internalType": "string",
          "name": "serviceName",
          "type": "string"
        }
      ],
      "name": "pay",
      "outputs": [],
      "stateMutability": "payable",
      "type": "function"
    },
    {
      "inputs": [
        {
          "internalType": "address",
          "name": "tokenAddress",
          "type": "address"
        },
        {
          "internalType": "uint256",
          "name": "tokenAmount",
          "type": "uint256"
        }
      ],
      "name": "recoverERC20",
      "outputs": [],
      "stateMutability": "nonpayable",
      "type": "function"
    },
    {
      "inputs": [],
      "name": "renounceOwnership",
      "outputs": [],
      "stateMutability": "nonpayable",
      "type": "function"
    },
    {
      "inputs": [
        {
          "internalType": "string",
          "name": "serviceName",
          "type": "string"
        },
        {
          "internalType": "uint256",
          "name": "amount",
          "type": "uint256"
        }
      ],
      "name": "setPrice",
      "outputs": [],
      "stateMutability": "nonpayable",
      "type": "function"
    },
    {
      "inputs": [
        {
          "internalType": "address",
          "name": "newOwner",
          "type": "address"
        }
      ],
      "name": "transferOwnership",
      "outputs": [],
      "stateMutability": "nonpayable",
      "type": "function"
    },
    {
      "inputs": [
        {
          "internalType": "uint256",
          "name": "amount",
          "type": "uint256"
        }
      ],
      "name": "withdraw",
      "outputs": [],
      "stateMutability": "nonpayable",
      "type": "function"
    }
  ],
  "bytecode": "0x608060405234801561001057600080fd5b5061002d61002261003260201b60201c565b61003a60201b60201c565b6100fe565b600033905090565b60008060009054906101000a900473ffffffffffffffffffffffffffffffffffffffff169050816000806101000a81548173ffffffffffffffffffffffffffffffffffffffff021916908373ffffffffffffffffffffffffffffffffffffffff1602179055508173ffffffffffffffffffffffffffffffffffffffff168173ffffffffffffffffffffffffffffffffffffffff167f8be0079c531659141344cd1fd0a4f28419497f9722a3daafe3b4186f6b6457e060405160405180910390a35050565b610ddd8061010d6000396000f3fe60806040526004361061007b5760003560e01c8063715018a61161004e578063715018a61461012b5780638980f11f146101425780638da5cb5b1461016b578063f2fde38b146101965761007b565b806322e01192146100805780632b66d72e146100a95780632e1a7d4d146100c5578063524f3889146100ee575b600080fd5b34801561008c57600080fd5b506100a760048036038101906100a29190610936565b6101bf565b005b6100c360048036038101906100be91906108f5565b61025f565b005b3480156100d157600080fd5b506100ec60048036038101906100e7919061098a565b610314565b005b3480156100fa57600080fd5b50610115600480360381019061011091906108f5565b6103e1565b6040516101229190610b39565b60405180910390f35b34801561013757600080fd5b50610140610406565b005b34801561014e57600080fd5b5061016960048036038101906101649190610890565b61048e565b005b34801561017757600080fd5b506101806105a3565b60405161018d9190610a73565b60405180910390f35b3480156101a257600080fd5b506101bd60048036038101906101b89190610867565b6105cc565b005b6101c76106c4565b73ffffffffffffffffffffffffffffffffffffffff166101e56105a3565b73ffffffffffffffffffffffffffffffffffffffff161461023b576040517f08c379a000000000000000000000000000000000000000000000000000000000815260040161023290610af9565b60405180910390fd5b8060016000610249856106cc565b8152602001908152602001600020819055505050565b6001600061026c836106cc565b81526020019081526020016000205434146102bc576040517f08c379a00000000000000000000000000000000000000000000000000000000081526004016102b390610b19565b60405180910390fd5b6102c46106c4565b73ffffffffffffffffffffffffffffffffffffffff167fdb4e8a6f69daa6b4b9977ed734b510ed9b7ce86536c87435bfd7ef57968d05ee826040516103099190610ab7565b60405180910390a250565b61031c6106c4565b73ffffffffffffffffffffffffffffffffffffffff1661033a6105a3565b73ffffffffffffffffffffffffffffffffffffffff1614610390576040517f08c379a000000000000000000000000000000000000000000000000000000000815260040161038790610af9565b60405180910390fd5b6103986105a3565b73ffffffffffffffffffffffffffffffffffffffff166108fc829081150290604051600060405180830381858888f193505050501580156103dd573d6000803e3d6000fd5b5050565b6000600160006103f0846106cc565b8152602001908152602001600020549050919050565b61040e6106c4565b73ffffffffffffffffffffffffffffffffffffffff1661042c6105a3565b73ffffffffffffffffffffffffffffffffffffffff1614610482576040517f08c379a000000000000000000000000000000000000000000000000000000000815260040161047990610af9565b60405180910390fd5b61048c60006106fc565b565b6104966106c4565b73ffffffffffffffffffffffffffffffffffffffff166104b46105a3565b73ffffffffffffffffffffffffffffffffffffffff161461050a576040517f08c379a000000000000000000000000000000000000000000000000000000000815260040161050190610af9565b60405180910390fd5b8173ffffffffffffffffffffffffffffffffffffffff1663a9059cbb61052e6105a3565b836040518363ffffffff1660e01b815260040161054c929190610a8e565b602060405180830381600087803b15801561056657600080fd5b505af115801561057a573d6000803e3d6000fd5b505050506040513d601f19601f8201168201806040525081019061059e91906108cc565b505050565b60008060009054906101000a900473ffffffffffffffffffffffffffffffffffffffff16905090565b6105d46106c4565b73ffffffffffffffffffffffffffffffffffffffff166105f26105a3565b73ffffffffffffffffffffffffffffffffffffffff1614610648576040517f08c379a000000000000000000000000000000000000000000000000000000000815260040161063f90610af9565b60405180910390fd5b600073ffffffffffffffffffffffffffffffffffffffff168173ffffffffffffffffffffffffffffffffffffffff1614156106b8576040517f08c379a00000000000000000000000000000000000000000000000000000000081526004016106af90610ad9565b60405180910390fd5b6106c1816106fc565b50565b600033905090565b6000816040516020016106df9190610ab7565b604051602081830303815290604052805190602001209050919050565b60008060009054906101000a900473ffffffffffffffffffffffffffffffffffffffff169050816000806101000a81548173ffffffffffffffffffffffffffffffffffffffff021916908373ffffffffffffffffffffffffffffffffffffffff1602179055508173ffffffffffffffffffffffffffffffffffffffff168173ffffffffffffffffffffffffffffffffffffffff167f8be0079c531659141344cd1fd0a4f28419497f9722a3daafe3b4186f6b6457e060405160405180910390a35050565b60006107d36107ce84610b79565b610b54565b9050828152602081018484840111156107eb57600080fd5b6107f6848285610c0e565b509392505050565b60008135905061080d81610d62565b92915050565b60008151905061082281610d79565b92915050565b600082601f83011261083957600080fd5b81356108498482602086016107c0565b91505092915050565b60008135905061086181610d90565b92915050565b60006020828403121561087957600080fd5b6000610887848285016107fe565b91505092915050565b600080604083850312156108a357600080fd5b60006108b1858286016107fe565b92505060206108c285828601610852565b9150509250929050565b6000602082840312156108de57600080fd5b60006108ec84828501610813565b91505092915050565b60006020828403121561090757600080fd5b600082013567ffffffffffffffff81111561092157600080fd5b61092d84828501610828565b91505092915050565b6000806040838503121561094957600080fd5b600083013567ffffffffffffffff81111561096357600080fd5b61096f85828601610828565b925050602061098085828601610852565b9150509250929050565b60006020828403121561099c57600080fd5b60006109aa84828501610852565b91505092915050565b6109bc81610bc6565b82525050565b60006109cd82610baa565b6109d78185610bb5565b93506109e7818560208601610c1d565b6109f081610cb0565b840191505092915050565b6000610a08602683610bb5565b9150610a1382610cc1565b604082019050919050565b6000610a2b602083610bb5565b9150610a3682610d10565b602082019050919050565b6000610a4e602083610bb5565b9150610a5982610d39565b602082019050919050565b610a6d81610c04565b82525050565b6000602082019050610a8860008301846109b3565b92915050565b6000604082019050610aa360008301856109b3565b610ab06020830184610a64565b9392505050565b60006020820190508181036000830152610ad181846109c2565b905092915050565b60006020820190508181036000830152610af2816109fb565b9050919050565b60006020820190508181036000830152610b1281610a1e565b9050919050565b60006020820190508181036000830152610b3281610a41565b9050919050565b6000602082019050610b4e6000830184610a64565b92915050565b6000610b5e610b6f565b9050610b6a8282610c50565b919050565b6000604051905090565b600067ffffffffffffffff821115610b9457610b93610c81565b5b610b9d82610cb0565b9050602081019050919050565b600081519050919050565b600082825260208201905092915050565b6000610bd182610be4565b9050919050565b60008115159050919050565b600073ffffffffffffffffffffffffffffffffffffffff82169050919050565b6000819050919050565b82818337600083830152505050565b60005b83811015610c3b578082015181840152602081019050610c20565b83811115610c4a576000848401525b50505050565b610c5982610cb0565b810181811067ffffffffffffffff82111715610c7857610c77610c81565b5b80604052505050565b7f4e487b7100000000000000000000000000000000000000000000000000000000600052604160045260246000fd5b6000601f19601f8301169050919050565b7f4f776e61626c653a206e6577206f776e657220697320746865207a65726f206160008201527f6464726573730000000000000000000000000000000000000000000000000000602082015250565b7f4f776e61626c653a2063616c6c6572206973206e6f7420746865206f776e6572600082015250565b7f5365727669636552656365697665723a20696e636f7272656374207072696365600082015250565b610d6b81610bc6565b8114610d7657600080fd5b50565b610d8281610bd8565b8114610d8d57600080fd5b50565b610d9981610c04565b8114610da457600080fd5b5056fea26469706673582212202b9fbb2f2d26eda6958b2d3e4c8a5f8206471b79867b96011f19adb8a1b6f8ae64736f6c63430008040033",
  "linkReferences": {},
  "deployedLinkReferences": {}
}