{
  "_format": "hh-sol-artifact-1",
  "contractName": "TokenRecover",
  "sourceName": "eth-token-recover/contracts/TokenRecover.sol",
  "abi": [
    {
      "anonymous": false,
      "inputs": [
        {
          "indexed": true,
          "internalType": "address",
          "name": "previousOwner",
          "type": "address"
        },
        {
          "indexed": true,
          "internalType": "address",
          "name": "newOwner",
          "type": "address"
        }
      ],
      "name": "OwnershipTransferred",
      "type": "event"
    },
    {
      "inputs": [],
      "name": "owner",
      "outputs": [
        {
          "internalType": "address",
          "name": "",
          "type": "address"
        }
      ],
      "stateMutability": "view",
      "type": "function"
    },
    {
      "inputs": [
        {
          "internalType": "address",
          "name": "tokenAddress",
          "type": "address"
        },
        {
          "internalType": "uint256",
          "name": "tokenAmount",
          "type": "uint256"
        }
      ],
      "name": "recoverERC20",
      "outputs": [],
      "stateMutability": "nonpayable",
      "type": "function"
    },
    {
      "inputs": [],
      "name": "renounceOwnership",
      "outputs": [],
      "stateMutability": "nonpayable",
      "type": "function"
    },
    {
      "inputs": [
        {
          "internalType": "address",
          "name": "newOwner",
          "type": "address"
        }
      ],
      "name": "transferOwnership",
      "outputs": [],
      "stateMutability": "nonpayable",
      "type": "function"
    }
  ],
  "bytecode": "0x608060405234801561001057600080fd5b5061002d61002261003260201b60201c565b61003a60201b60201c565b6100fe565b600033905090565b60008060009054906101000a900473ffffffffffffffffffffffffffffffffffffffff169050816000806101000a81548173ffffffffffffffffffffffffffffffffffffffff021916908373ffffffffffffffffffffffffffffffffffffffff1602179055508173ffffffffffffffffffffffffffffffffffffffff168173ffffffffffffffffffffffffffffffffffffffff167f8be0079c531659141344cd1fd0a4f28419497f9722a3daafe3b4186f6b6457e060405160405180910390a35050565b61073c8061010d6000396000f3fe608060405234801561001057600080fd5b506004361061004c5760003560e01c8063715018a6146100515780638980f11f1461005b5780638da5cb5b14610077578063f2fde38b14610095575b600080fd5b6100596100b1565b005b610075600480360381019061007091906104a3565b610139565b005b61007f61024e565b60405161008c919061056c565b60405180910390f35b6100af60048036038101906100aa919061047a565b610277565b005b6100b961036f565b73ffffffffffffffffffffffffffffffffffffffff166100d761024e565b73ffffffffffffffffffffffffffffffffffffffff161461012d576040517f08c379a0000000000000000000000000000000000000000000000000000000008152600401610124906105d0565b60405180910390fd5b6101376000610377565b565b61014161036f565b73ffffffffffffffffffffffffffffffffffffffff1661015f61024e565b73ffffffffffffffffffffffffffffffffffffffff16146101b5576040517f08c379a00000000000000000000000000000000000000000000000000000000081526004016101ac906105d0565b60405180910390fd5b8173ffffffffffffffffffffffffffffffffffffffff1663a9059cbb6101d961024e565b836040518363ffffffff1660e01b81526004016101f7929190610587565b602060405180830381600087803b15801561021157600080fd5b505af1158015610225573d6000803e3d6000fd5b505050506040513d601f19601f8201168201806040525081019061024991906104df565b505050565b60008060009054906101000a900473ffffffffffffffffffffffffffffffffffffffff16905090565b61027f61036f565b73ffffffffffffffffffffffffffffffffffffffff1661029d61024e565b73ffffffffffffffffffffffffffffffffffffffff16146102f3576040517f08c379a00000000000000000000000000000000000000000000000000000000081526004016102ea906105d0565b60405180910390fd5b600073ffffffffffffffffffffffffffffffffffffffff168173ffffffffffffffffffffffffffffffffffffffff161415610363576040517f08c379a000000000000000000000000000000000000000000000000000000000815260040161035a906105b0565b60405180910390fd5b61036c81610377565b50565b600033905090565b60008060009054906101000a900473ffffffffffffffffffffffffffffffffffffffff169050816000806101000a81548173ffffffffffffffffffffffffffffffffffffffff021916908373ffffffffffffffffffffffffffffffffffffffff1602179055508173ffffffffffffffffffffffffffffffffffffffff168173ffffffffffffffffffffffffffffffffffffffff167f8be0079c531659141344cd1fd0a4f28419497f9722a3daafe3b4186f6b6457e060405160405180910390a35050565b60008135905061044a816106c1565b92915050565b60008151905061045f816106d8565b92915050565b600081359050610474816106ef565b92915050565b60006020828403121561048c57600080fd5b600061049a8482850161043b565b91505092915050565b600080604083850312156104b657600080fd5b60006104c48582860161043b565b92505060206104d585828601610465565b9150509250929050565b6000602082840312156104f157600080fd5b60006104ff84828501610450565b91505092915050565b61051181610601565b82525050565b60006105246026836105f0565b915061052f82610649565b604082019050919050565b60006105476020836105f0565b915061055282610698565b602082019050919050565b6105668161063f565b82525050565b60006020820190506105816000830184610508565b92915050565b600060408201905061059c6000830185610508565b6105a9602083018461055d565b9392505050565b600060208201905081810360008301526105c981610517565b9050919050565b600060208201905081810360008301526105e98161053a565b9050919050565b600082825260208201905092915050565b600061060c8261061f565b9050919050565b60008115159050919050565b600073ffffffffffffffffffffffffffffffffffffffff82169050919050565b6000819050919050565b7f4f776e61626c653a206e6577206f776e657220697320746865207a65726f206160008201527f6464726573730000000000000000000000000000000000000000000000000000602082015250565b7f4f776e61626c653a2063616c6c6572206973206e6f7420746865206f776e6572600082015250565b6106ca81610601565b81146106d557600080fd5b50565b6106e181610613565b81146106ec57600080fd5b50565b6106f88161063f565b811461070357600080fd5b5056fea264697066735822122038dbb8519fbd84d3097a91fdcdecae91964ebe4ecf1024d4c29ebcbf2ea67bb164736f6c63430008040033",
  "linkReferences": {},
  "deployedLinkReferences": {}
}